{
    "_format": "hh-sol-artifact-1",
    "contractName": "Subversivs",
    "sourceName": "contracts/Subversivs.sol",
    "abi": [
        {
            "inputs": [],
            "stateMutability": "nonpayable",
            "type": "constructor"
        },
        {
            "anonymous": false,
            "inputs": [
                {
                    "indexed": true,
                    "internalType": "address",
                    "name": "owner",
                    "type": "address"
                },
                {
                    "indexed": true,
                    "internalType": "address",
                    "name": "approved",
                    "type": "address"
                },
                {
                    "indexed": true,
                    "internalType": "uint256",
                    "name": "tokenId",
                    "type": "uint256"
                }
            ],
            "name": "Approval",
            "type": "event"
        },
        {
            "anonymous": false,
            "inputs": [
                {
                    "indexed": true,
                    "internalType": "address",
                    "name": "owner",
                    "type": "address"
                },
                {
                    "indexed": true,
                    "internalType": "address",
                    "name": "operator",
                    "type": "address"
                },
                {
                    "indexed": false,
                    "internalType": "bool",
                    "name": "approved",
                    "type": "bool"
                }
            ],
            "name": "ApprovalForAll",
            "type": "event"
        },
        {
            "anonymous": false,
            "inputs": [
                {
                    "indexed": true,
                    "internalType": "address",
                    "name": "previousOwner",
                    "type": "address"
                },
                {
                    "indexed": true,
                    "internalType": "address",
                    "name": "newOwner",
                    "type": "address"
                }
            ],
            "name": "OwnershipTransferred",
            "type": "event"
        },
        {
            "anonymous": false,
            "inputs": [
                {
                    "indexed": true,
                    "internalType": "address",
                    "name": "from",
                    "type": "address"
                },
                {
                    "indexed": true,
                    "internalType": "address",
                    "name": "to",
                    "type": "address"
                },
                {
                    "indexed": true,
                    "internalType": "uint256",
                    "name": "tokenId",
                    "type": "uint256"
                }
            ],
            "name": "Transfer",
            "type": "event"
        },
        {
            "inputs": [
                {
                    "internalType": "address",
                    "name": "to",
                    "type": "address"
                },
                {
                    "internalType": "uint256",
                    "name": "tokenId",
                    "type": "uint256"
                }
            ],
            "name": "approve",
            "outputs": [],
            "stateMutability": "nonpayable",
            "type": "function"
        },
        {
            "inputs": [
                {
                    "internalType": "address",
                    "name": "owner",
                    "type": "address"
                }
            ],
            "name": "balanceOf",
            "outputs": [
                {
                    "internalType": "uint256",
                    "name": "",
                    "type": "uint256"
                }
            ],
            "stateMutability": "view",
            "type": "function"
        },
        {
            "inputs": [
                {
                    "internalType": "uint256",
                    "name": "tokenId",
                    "type": "uint256"
                }
            ],
            "name": "getApproved",
            "outputs": [
                {
                    "internalType": "address",
                    "name": "",
                    "type": "address"
                }
            ],
            "stateMutability": "view",
            "type": "function"
        },
        {
            "inputs": [
                {
                    "internalType": "address",
                    "name": "owner",
                    "type": "address"
                },
                {
                    "internalType": "address",
                    "name": "operator",
                    "type": "address"
                }
            ],
            "name": "isApprovedForAll",
            "outputs": [
                {
                    "internalType": "bool",
                    "name": "",
                    "type": "bool"
                }
            ],
            "stateMutability": "view",
            "type": "function"
        },
        {
            "inputs": [],
            "name": "name",
            "outputs": [
                {
                    "internalType": "string",
                    "name": "",
                    "type": "string"
                }
            ],
            "stateMutability": "view",
            "type": "function"
        },
        {
            "inputs": [],
            "name": "owner",
            "outputs": [
                {
                    "internalType": "address",
                    "name": "",
                    "type": "address"
                }
            ],
            "stateMutability": "view",
            "type": "function"
        },
        {
            "inputs": [
                {
                    "internalType": "uint256",
                    "name": "tokenId",
                    "type": "uint256"
                }
            ],
            "name": "ownerOf",
            "outputs": [
                {
                    "internalType": "address",
                    "name": "",
                    "type": "address"
                }
            ],
            "stateMutability": "view",
            "type": "function"
        },
        {
            "inputs": [],
            "name": "renounceOwnership",
            "outputs": [],
            "stateMutability": "nonpayable",
            "type": "function"
        },
        {
            "inputs": [
                {
                    "internalType": "uint256",
                    "name": "_tokenId",
                    "type": "uint256"
                },
                {
                    "internalType": "uint256",
                    "name": "_salePrice",
                    "type": "uint256"
                }
            ],
            "name": "royaltyInfo",
            "outputs": [
                {
                    "internalType": "address",
                    "name": "",
                    "type": "address"
                },
                {
                    "internalType": "uint256",
                    "name": "",
                    "type": "uint256"
                }
            ],
            "stateMutability": "view",
            "type": "function"
        },
        {
            "inputs": [
                {
                    "internalType": "address",
                    "name": "to",
                    "type": "address"
                },
                {
                    "internalType": "string",
                    "name": "uri",
                    "type": "string"
                }
            ],
            "name": "safeMint",
            "outputs": [],
            "stateMutability": "nonpayable",
            "type": "function"
        },
        {
            "inputs": [
                {
                    "internalType": "address",
                    "name": "from",
                    "type": "address"
                },
                {
                    "internalType": "address",
                    "name": "to",
                    "type": "address"
                },
                {
                    "internalType": "uint256",
                    "name": "tokenId",
                    "type": "uint256"
                }
            ],
            "name": "safeTransferFrom",
            "outputs": [],
            "stateMutability": "nonpayable",
            "type": "function"
        },
        {
            "inputs": [
                {
                    "internalType": "address",
                    "name": "from",
                    "type": "address"
                },
                {
                    "internalType": "address",
                    "name": "to",
                    "type": "address"
                },
                {
                    "internalType": "uint256",
                    "name": "tokenId",
                    "type": "uint256"
                },
                {
                    "internalType": "bytes",
                    "name": "_data",
                    "type": "bytes"
                }
            ],
            "name": "safeTransferFrom",
            "outputs": [],
            "stateMutability": "nonpayable",
            "type": "function"
        },
        {
            "inputs": [
                {
                    "internalType": "address",
                    "name": "operator",
                    "type": "address"
                },
                {
                    "internalType": "bool",
                    "name": "approved",
                    "type": "bool"
                }
            ],
            "name": "setApprovalForAll",
            "outputs": [],
            "stateMutability": "nonpayable",
            "type": "function"
        },
        {
            "inputs": [
                {
                    "internalType": "bytes4",
                    "name": "interfaceId",
                    "type": "bytes4"
                }
            ],
            "name": "supportsInterface",
            "outputs": [
                {
                    "internalType": "bool",
                    "name": "",
                    "type": "bool"
                }
            ],
            "stateMutability": "view",
            "type": "function"
        },
        {
            "inputs": [],
            "name": "symbol",
            "outputs": [
                {
                    "internalType": "string",
                    "name": "",
                    "type": "string"
                }
            ],
            "stateMutability": "view",
            "type": "function"
        },
        {
            "inputs": [
                {
                    "internalType": "uint256",
                    "name": "tokenId",
                    "type": "uint256"
                }
            ],
            "name": "tokenURI",
            "outputs": [
                {
                    "internalType": "string",
                    "name": "",
                    "type": "string"
                }
            ],
            "stateMutability": "view",
            "type": "function"
        },
        {
            "inputs": [
                {
                    "internalType": "address",
                    "name": "from",
                    "type": "address"
                },
                {
                    "internalType": "address",
                    "name": "to",
                    "type": "address"
                },
                {
                    "internalType": "uint256",
                    "name": "tokenId",
                    "type": "uint256"
                }
            ],
            "name": "transferFrom",
            "outputs": [],
            "stateMutability": "nonpayable",
            "type": "function"
        },
        {
            "inputs": [
                {
                    "internalType": "address",
                    "name": "newOwner",
                    "type": "address"
                }
            ],
            "name": "transferOwnership",
            "outputs": [],
            "stateMutability": "nonpayable",
            "type": "function"
        }
    ],
    "bytecode": "0x60806040523480156200001157600080fd5b506040518060400160405280600a81526020017f53756276657273697673000000000000000000000000000000000000000000008152506040518060400160405280600581526020017f444d4e4453000000000000000000000000000000000000000000000000000000815250816000908051906020019062000096929190620001a6565b508060019080519060200190620000af929190620001a6565b505050620000d2620000c6620000d860201b60201c565b620000e060201b60201c565b620002bb565b600033905090565b6000600760009054906101000a900473ffffffffffffffffffffffffffffffffffffffff16905081600760006101000a81548173ffffffffffffffffffffffffffffffffffffffff021916908373ffffffffffffffffffffffffffffffffffffffff1602179055508173ffffffffffffffffffffffffffffffffffffffff168173ffffffffffffffffffffffffffffffffffffffff167f8be0079c531659141344cd1fd0a4f28419497f9722a3daafe3b4186f6b6457e060405160405180910390a35050565b828054620001b49062000256565b90600052602060002090601f016020900481019282620001d8576000855562000224565b82601f10620001f357805160ff191683800117855562000224565b8280016001018555821562000224579182015b828111156200022357825182559160200191906001019062000206565b5b50905062000233919062000237565b5090565b5b808211156200025257600081600090555060010162000238565b5090565b600060028204905060018216806200026f57607f821691505b602082108114156200028657620002856200028c565b5b50919050565b7f4e487b7100000000000000000000000000000000000000000000000000000000600052602260045260246000fd5b6133fb80620002cb6000396000f3fe608060405234801561001057600080fd5b50600436106101165760003560e01c8063715018a6116100a2578063b88d4fde11610071578063b88d4fde146102e0578063c87b56dd146102fc578063d204c45e1461032c578063e985e9c514610348578063f2fde38b1461037857610116565b8063715018a61461027e5780638da5cb5b1461028857806395d89b41146102a6578063a22cb465146102c457610116565b806323b872dd116100e957806323b872dd146101b55780632a55205a146101d157806342842e0e146102025780636352211e1461021e57806370a082311461024e57610116565b806301ffc9a71461011b57806306fdde031461014b578063081812fc14610169578063095ea7b314610199575b600080fd5b610135600480360381019061013091906122eb565b610394565b604051610142919061279c565b60405180910390f35b6101536103a6565b60405161016091906127b7565b60405180910390f35b610183600480360381019061017e919061233d565b610438565b604051610190919061270c565b60405180910390f35b6101b360048036038101906101ae91906122af565b6104bd565b005b6101cf60048036038101906101ca9190612155565b6105d5565b005b6101eb60048036038101906101e69190612366565b610635565b6040516101f9929190612773565b60405180910390f35b61021c60048036038101906102179190612155565b610820565b005b6102386004803603810190610233919061233d565b610840565b604051610245919061270c565b60405180910390f35b610268600480360381019061026391906120f0565b6108f2565b6040516102759190612a19565b60405180910390f35b6102866109aa565b005b610290610a32565b60405161029d919061270c565b60405180910390f35b6102ae610a5c565b6040516102bb91906127b7565b60405180910390f35b6102de60048036038101906102d9919061221f565b610aee565b005b6102fa60048036038101906102f591906121a4565b610b04565b005b6103166004803603810190610311919061233d565b610b66565b60405161032391906127b7565b60405180910390f35b6103466004803603810190610341919061225b565b610b78565b005b610362600480360381019061035d9190612119565b610c25565b60405161036f919061279c565b60405180910390f35b610392600480360381019061038d91906120f0565b610cb9565b005b600061039f82610db1565b9050919050565b6060600080546103b590612cc9565b80601f01602080910402602001604051908101604052809291908181526020018280546103e190612cc9565b801561042e5780601f106104035761010080835404028352916020019161042e565b820191906000526020600020905b81548152906001019060200180831161041157829003601f168201915b5050505050905090565b600061044382610e2b565b610482576040517f08c379a000000000000000000000000000000000000000000000000000000000815260040161047990612979565b60405180910390fd5b6004600083815260200190815260200160002060009054906101000a900473ffffffffffffffffffffffffffffffffffffffff169050919050565b60006104c882610840565b90508073ffffffffffffffffffffffffffffffffffffffff168373ffffffffffffffffffffffffffffffffffffffff161415610539576040517f08c379a0000000000000000000000000000000000000000000000000000000008152600401610530906129d9565b60405180910390fd5b8073ffffffffffffffffffffffffffffffffffffffff16610558610e97565b73ffffffffffffffffffffffffffffffffffffffff161480610587575061058681610581610e97565b610c25565b5b6105c6576040517f08c379a00000000000000000000000000000000000000000000000000000000081526004016105bd906128b9565b60405180910390fd5b6105d08383610e9f565b505050565b6105e66105e0610e97565b82610f58565b610625576040517f08c379a000000000000000000000000000000000000000000000000000000000815260040161061c906129f9565b60405180910390fd5b610630838383611036565b505050565b6000806000600960008681526020019081526020016000206040518060400160405290816000820160009054906101000a900473ffffffffffffffffffffffffffffffffffffffff1673ffffffffffffffffffffffffffffffffffffffff1673ffffffffffffffffffffffffffffffffffffffff1681526020016000820160149054906101000a90046bffffffffffffffffffffffff166bffffffffffffffffffffffff166bffffffffffffffffffffffff16815250509050600073ffffffffffffffffffffffffffffffffffffffff16816000015173ffffffffffffffffffffffffffffffffffffffff1614156107cb5760086040518060400160405290816000820160009054906101000a900473ffffffffffffffffffffffffffffffffffffffff1673ffffffffffffffffffffffffffffffffffffffff1673ffffffffffffffffffffffffffffffffffffffff1681526020016000820160149054906101000a90046bffffffffffffffffffffffff166bffffffffffffffffffffffff166bffffffffffffffffffffffff168152505090505b60006107d561129d565b6bffffffffffffffffffffffff1682602001516bffffffffffffffffffffffff16866108019190612b85565b61080b9190612b54565b90508160000151819350935050509250929050565b61083b83838360405180602001604052806000815250610b04565b505050565b6000806002600084815260200190815260200160002060009054906101000a900473ffffffffffffffffffffffffffffffffffffffff169050600073ffffffffffffffffffffffffffffffffffffffff168173ffffffffffffffffffffffffffffffffffffffff1614156108e9576040517f08c379a00000000000000000000000000000000000000000000000000000000081526004016108e0906128f9565b60405180910390fd5b80915050919050565b60008073ffffffffffffffffffffffffffffffffffffffff168273ffffffffffffffffffffffffffffffffffffffff161415610963576040517f08c379a000000000000000000000000000000000000000000000000000000000815260040161095a906128d9565b60405180910390fd5b600360008373ffffffffffffffffffffffffffffffffffffffff1673ffffffffffffffffffffffffffffffffffffffff168152602001908152602001600020549050919050565b6109b2610e97565b73ffffffffffffffffffffffffffffffffffffffff166109d0610a32565b73ffffffffffffffffffffffffffffffffffffffff1614610a26576040517f08c379a0000000000000000000000000000000000000000000000000000000008152600401610a1d90612999565b60405180910390fd5b610a3060006112a7565b565b6000600760009054906101000a900473ffffffffffffffffffffffffffffffffffffffff16905090565b606060018054610a6b90612cc9565b80601f0160208091040260200160405190810160405280929190818152602001828054610a9790612cc9565b8015610ae45780601f10610ab957610100808354040283529160200191610ae4565b820191906000526020600020905b815481529060010190602001808311610ac757829003601f168201915b5050505050905090565b610b00610af9610e97565b838361136d565b5050565b610b15610b0f610e97565b83610f58565b610b54576040517f08c379a0000000000000000000000000000000000000000000000000000000008152600401610b4b906129f9565b60405180910390fd5b610b60848484846114da565b50505050565b6060610b7182611536565b9050919050565b610b80610e97565b73ffffffffffffffffffffffffffffffffffffffff16610b9e610a32565b73ffffffffffffffffffffffffffffffffffffffff1614610bf4576040517f08c379a0000000000000000000000000000000000000000000000000000000008152600401610beb90612999565b60405180910390fd5b6000610c00600a611688565b9050610c0c600a611696565b610c1683826116ac565b610c2081836116ca565b505050565b6000600560008473ffffffffffffffffffffffffffffffffffffffff1673ffffffffffffffffffffffffffffffffffffffff16815260200190815260200160002060008373ffffffffffffffffffffffffffffffffffffffff1673ffffffffffffffffffffffffffffffffffffffff16815260200190815260200160002060009054906101000a900460ff16905092915050565b610cc1610e97565b73ffffffffffffffffffffffffffffffffffffffff16610cdf610a32565b73ffffffffffffffffffffffffffffffffffffffff1614610d35576040517f08c379a0000000000000000000000000000000000000000000000000000000008152600401610d2c90612999565b60405180910390fd5b600073ffffffffffffffffffffffffffffffffffffffff168173ffffffffffffffffffffffffffffffffffffffff161415610da5576040517f08c379a0000000000000000000000000000000000000000000000000000000008152600401610d9c906127f9565b60405180910390fd5b610dae816112a7565b50565b60007f2a55205a000000000000000000000000000000000000000000000000000000007bffffffffffffffffffffffffffffffffffffffffffffffffffffffff1916827bffffffffffffffffffffffffffffffffffffffffffffffffffffffff19161480610e245750610e238261173e565b5b9050919050565b60008073ffffffffffffffffffffffffffffffffffffffff166002600084815260200190815260200160002060009054906101000a900473ffffffffffffffffffffffffffffffffffffffff1673ffffffffffffffffffffffffffffffffffffffff1614159050919050565b600033905090565b816004600083815260200190815260200160002060006101000a81548173ffffffffffffffffffffffffffffffffffffffff021916908373ffffffffffffffffffffffffffffffffffffffff160217905550808273ffffffffffffffffffffffffffffffffffffffff16610f1283610840565b73ffffffffffffffffffffffffffffffffffffffff167f8c5be1e5ebec7d5bd14f71427d1e84f3dd0314c0f7b2291e5b200ac8c7c3b92560405160405180910390a45050565b6000610f6382610e2b565b610fa2576040517f08c379a0000000000000000000000000000000000000000000000000000000008152600401610f9990612899565b60405180910390fd5b6000610fad83610840565b90508073ffffffffffffffffffffffffffffffffffffffff168473ffffffffffffffffffffffffffffffffffffffff16148061101c57508373ffffffffffffffffffffffffffffffffffffffff1661100484610438565b73ffffffffffffffffffffffffffffffffffffffff16145b8061102d575061102c8185610c25565b5b91505092915050565b8273ffffffffffffffffffffffffffffffffffffffff1661105682610840565b73ffffffffffffffffffffffffffffffffffffffff16146110ac576040517f08c379a00000000000000000000000000000000000000000000000000000000081526004016110a390612819565b60405180910390fd5b600073ffffffffffffffffffffffffffffffffffffffff168273ffffffffffffffffffffffffffffffffffffffff16141561111c576040517f08c379a000000000000000000000000000000000000000000000000000000000815260040161111390612859565b60405180910390fd5b611127838383611820565b611132600082610e9f565b6001600360008573ffffffffffffffffffffffffffffffffffffffff1673ffffffffffffffffffffffffffffffffffffffff16815260200190815260200160002060008282546111829190612bdf565b925050819055506001600360008473ffffffffffffffffffffffffffffffffffffffff1673ffffffffffffffffffffffffffffffffffffffff16815260200190815260200160002060008282546111d99190612afe565b92505081905550816002600083815260200190815260200160002060006101000a81548173ffffffffffffffffffffffffffffffffffffffff021916908373ffffffffffffffffffffffffffffffffffffffff160217905550808273ffffffffffffffffffffffffffffffffffffffff168473ffffffffffffffffffffffffffffffffffffffff167fddf252ad1be2c89b69c2b068fc378daa952ba7f163c4a11628f55a4df523b3ef60405160405180910390a4611298838383611825565b505050565b6000612710905090565b6000600760009054906101000a900473ffffffffffffffffffffffffffffffffffffffff16905081600760006101000a81548173ffffffffffffffffffffffffffffffffffffffff021916908373ffffffffffffffffffffffffffffffffffffffff1602179055508173ffffffffffffffffffffffffffffffffffffffff168173ffffffffffffffffffffffffffffffffffffffff167f8be0079c531659141344cd1fd0a4f28419497f9722a3daafe3b4186f6b6457e060405160405180910390a35050565b8173ffffffffffffffffffffffffffffffffffffffff168373ffffffffffffffffffffffffffffffffffffffff1614156113dc576040517f08c379a00000000000000000000000000000000000000000000000000000000081526004016113d390612879565b60405180910390fd5b80600560008573ffffffffffffffffffffffffffffffffffffffff1673ffffffffffffffffffffffffffffffffffffffff16815260200190815260200160002060008473ffffffffffffffffffffffffffffffffffffffff1673ffffffffffffffffffffffffffffffffffffffff16815260200190815260200160002060006101000a81548160ff0219169083151502179055508173ffffffffffffffffffffffffffffffffffffffff168373ffffffffffffffffffffffffffffffffffffffff167f17307eab39ab6107e8899845ad3d59bd9653f200f220920489ca2b5937696c31836040516114cd919061279c565b60405180910390a3505050565b6114e5848484611036565b6114f18484848461182a565b611530576040517f08c379a0000000000000000000000000000000000000000000000000000000008152600401611527906127d9565b60405180910390fd5b50505050565b606061154182610e2b565b611580576040517f08c379a000000000000000000000000000000000000000000000000000000000815260040161157790612959565b60405180910390fd5b60006006600084815260200190815260200160002080546115a090612cc9565b80601f01602080910402602001604051908101604052809291908181526020018280546115cc90612cc9565b80156116195780601f106115ee57610100808354040283529160200191611619565b820191906000526020600020905b8154815290600101906020018083116115fc57829003601f168201915b50505050509050600061162a6119c1565b9050600081511415611640578192505050611683565b60008251111561167557808260405160200161165d9291906126e8565b60405160208183030381529060405292505050611683565b61167e846119fe565b925050505b919050565b600081600001549050919050565b6001816000016000828254019250508190555050565b6116c6828260405180602001604052806000815250611aa5565b5050565b6116d382610e2b565b611712576040517f08c379a000000000000000000000000000000000000000000000000000000000815260040161170990612919565b60405180910390fd5b80600660008481526020019081526020016000209080519060200190611739929190611f14565b505050565b60007f80ac58cd000000000000000000000000000000000000000000000000000000007bffffffffffffffffffffffffffffffffffffffffffffffffffffffff1916827bffffffffffffffffffffffffffffffffffffffffffffffffffffffff1916148061180957507f5b5e139f000000000000000000000000000000000000000000000000000000007bffffffffffffffffffffffffffffffffffffffffffffffffffffffff1916827bffffffffffffffffffffffffffffffffffffffffffffffffffffffff1916145b80611819575061181882611b00565b5b9050919050565b505050565b505050565b600061184b8473ffffffffffffffffffffffffffffffffffffffff16611b6a565b156119b4578373ffffffffffffffffffffffffffffffffffffffff1663150b7a02611874610e97565b8786866040518563ffffffff1660e01b81526004016118969493929190612727565b602060405180830381600087803b1580156118b057600080fd5b505af19250505080156118e157506040513d601f19601f820116820180604052508101906118de9190612314565b60015b611964573d8060008114611911576040519150601f19603f3d011682016040523d82523d6000602084013e611916565b606091505b5060008151141561195c576040517f08c379a0000000000000000000000000000000000000000000000000000000008152600401611953906127d9565b60405180910390fd5b805181602001fd5b63150b7a0260e01b7bffffffffffffffffffffffffffffffffffffffffffffffffffffffff1916817bffffffffffffffffffffffffffffffffffffffffffffffffffffffff1916149150506119b9565b600190505b949350505050565b60606040518060400160405280601381526020017f68747470733a2f2f66616b657572692e636f6d00000000000000000000000000815250905090565b6060611a0982610e2b565b611a48576040517f08c379a0000000000000000000000000000000000000000000000000000000008152600401611a3f906129b9565b60405180910390fd5b6000611a526119c1565b90506000815111611a725760405180602001604052806000815250611a9d565b80611a7c84611b8d565b604051602001611a8d9291906126e8565b6040516020818303038152906040525b915050919050565b611aaf8383611d3a565b611abc600084848461182a565b611afb576040517f08c379a0000000000000000000000000000000000000000000000000000000008152600401611af2906127d9565b60405180910390fd5b505050565b60007f01ffc9a7000000000000000000000000000000000000000000000000000000007bffffffffffffffffffffffffffffffffffffffffffffffffffffffff1916827bffffffffffffffffffffffffffffffffffffffffffffffffffffffff1916149050919050565b6000808273ffffffffffffffffffffffffffffffffffffffff163b119050919050565b60606000821415611bd5576040518060400160405280600181526020017f30000000000000000000000000000000000000000000000000000000000000008152509050611d35565b600082905060005b60008214611c07578080611bf090612d2c565b915050600a82611c009190612b54565b9150611bdd565b60008167ffffffffffffffff811115611c49577f4e487b7100000000000000000000000000000000000000000000000000000000600052604160045260246000fd5b6040519080825280601f01601f191660200182016040528015611c7b5781602001600182028036833780820191505090505b5090505b60008514611d2e57600182611c949190612bdf565b9150600a85611ca39190612d75565b6030611caf9190612afe565b60f81b818381518110611ceb577f4e487b7100000000000000000000000000000000000000000000000000000000600052603260045260246000fd5b60200101907effffffffffffffffffffffffffffffffffffffffffffffffffffffffffffff1916908160001a905350600a85611d279190612b54565b9450611c7f565b8093505050505b919050565b600073ffffffffffffffffffffffffffffffffffffffff168273ffffffffffffffffffffffffffffffffffffffff161415611daa576040517f08c379a0000000000000000000000000000000000000000000000000000000008152600401611da190612939565b60405180910390fd5b611db381610e2b565b15611df3576040517f08c379a0000000000000000000000000000000000000000000000000000000008152600401611dea90612839565b60405180910390fd5b611dff60008383611820565b6001600360008473ffffffffffffffffffffffffffffffffffffffff1673ffffffffffffffffffffffffffffffffffffffff1681526020019081526020016000206000828254611e4f9190612afe565b92505081905550816002600083815260200190815260200160002060006101000a81548173ffffffffffffffffffffffffffffffffffffffff021916908373ffffffffffffffffffffffffffffffffffffffff160217905550808273ffffffffffffffffffffffffffffffffffffffff16600073ffffffffffffffffffffffffffffffffffffffff167fddf252ad1be2c89b69c2b068fc378daa952ba7f163c4a11628f55a4df523b3ef60405160405180910390a4611f1060008383611825565b5050565b828054611f2090612cc9565b90600052602060002090601f016020900481019282611f425760008555611f89565b82601f10611f5b57805160ff1916838001178555611f89565b82800160010185558215611f89579182015b82811115611f88578251825591602001919060010190611f6d565b5b509050611f969190611f9a565b5090565b5b80821115611fb3576000816000905550600101611f9b565b5090565b6000611fca611fc584612a59565b612a34565b905082815260208101848484011115611fe257600080fd5b611fed848285612c87565b509392505050565b600061200861200384612a8a565b612a34565b90508281526020810184848401111561202057600080fd5b61202b848285612c87565b509392505050565b60008135905061204281613369565b92915050565b60008135905061205781613380565b92915050565b60008135905061206c81613397565b92915050565b60008151905061208181613397565b92915050565b600082601f83011261209857600080fd5b81356120a8848260208601611fb7565b91505092915050565b600082601f8301126120c257600080fd5b81356120d2848260208601611ff5565b91505092915050565b6000813590506120ea816133ae565b92915050565b60006020828403121561210257600080fd5b600061211084828501612033565b91505092915050565b6000806040838503121561212c57600080fd5b600061213a85828601612033565b925050602061214b85828601612033565b9150509250929050565b60008060006060848603121561216a57600080fd5b600061217886828701612033565b935050602061218986828701612033565b925050604061219a868287016120db565b9150509250925092565b600080600080608085870312156121ba57600080fd5b60006121c887828801612033565b94505060206121d987828801612033565b93505060406121ea878288016120db565b925050606085013567ffffffffffffffff81111561220757600080fd5b61221387828801612087565b91505092959194509250565b6000806040838503121561223257600080fd5b600061224085828601612033565b925050602061225185828601612048565b9150509250929050565b6000806040838503121561226e57600080fd5b600061227c85828601612033565b925050602083013567ffffffffffffffff81111561229957600080fd5b6122a5858286016120b1565b9150509250929050565b600080604083850312156122c257600080fd5b60006122d085828601612033565b92505060206122e1858286016120db565b9150509250929050565b6000602082840312156122fd57600080fd5b600061230b8482850161205d565b91505092915050565b60006020828403121561232657600080fd5b600061233484828501612072565b91505092915050565b60006020828403121561234f57600080fd5b600061235d848285016120db565b91505092915050565b6000806040838503121561237957600080fd5b6000612387858286016120db565b9250506020612398858286016120db565b9150509250929050565b6123ab81612c13565b82525050565b6123ba81612c25565b82525050565b60006123cb82612abb565b6123d58185612ad1565b93506123e5818560208601612c96565b6123ee81612e62565b840191505092915050565b600061240482612ac6565b61240e8185612ae2565b935061241e818560208601612c96565b61242781612e62565b840191505092915050565b600061243d82612ac6565b6124478185612af3565b9350612457818560208601612c96565b80840191505092915050565b6000612470603283612ae2565b915061247b82612e73565b604082019050919050565b6000612493602683612ae2565b915061249e82612ec2565b604082019050919050565b60006124b6602583612ae2565b91506124c182612f11565b604082019050919050565b60006124d9601c83612ae2565b91506124e482612f60565b602082019050919050565b60006124fc602483612ae2565b915061250782612f89565b604082019050919050565b600061251f601983612ae2565b915061252a82612fd8565b602082019050919050565b6000612542602c83612ae2565b915061254d82613001565b604082019050919050565b6000612565603883612ae2565b915061257082613050565b604082019050919050565b6000612588602a83612ae2565b91506125938261309f565b604082019050919050565b60006125ab602983612ae2565b91506125b6826130ee565b604082019050919050565b60006125ce602e83612ae2565b91506125d98261313d565b604082019050919050565b60006125f1602083612ae2565b91506125fc8261318c565b602082019050919050565b6000612614603183612ae2565b915061261f826131b5565b604082019050919050565b6000612637602c83612ae2565b915061264282613204565b604082019050919050565b600061265a602083612ae2565b915061266582613253565b602082019050919050565b600061267d602f83612ae2565b91506126888261327c565b604082019050919050565b60006126a0602183612ae2565b91506126ab826132cb565b604082019050919050565b60006126c3603183612ae2565b91506126ce8261331a565b604082019050919050565b6126e281612c7d565b82525050565b60006126f48285612432565b91506127008284612432565b91508190509392505050565b600060208201905061272160008301846123a2565b92915050565b600060808201905061273c60008301876123a2565b61274960208301866123a2565b61275660408301856126d9565b818103606083015261276881846123c0565b905095945050505050565b600060408201905061278860008301856123a2565b61279560208301846126d9565b9392505050565b60006020820190506127b160008301846123b1565b92915050565b600060208201905081810360008301526127d181846123f9565b905092915050565b600060208201905081810360008301526127f281612463565b9050919050565b6000602082019050818103600083015261281281612486565b9050919050565b60006020820190508181036000830152612832816124a9565b9050919050565b60006020820190508181036000830152612852816124cc565b9050919050565b60006020820190508181036000830152612872816124ef565b9050919050565b6000602082019050818103600083015261289281612512565b9050919050565b600060208201905081810360008301526128b281612535565b9050919050565b600060208201905081810360008301526128d281612558565b9050919050565b600060208201905081810360008301526128f28161257b565b9050919050565b600060208201905081810360008301526129128161259e565b9050919050565b60006020820190508181036000830152612932816125c1565b9050919050565b60006020820190508181036000830152612952816125e4565b9050919050565b6000602082019050818103600083015261297281612607565b9050919050565b600060208201905081810360008301526129928161262a565b9050919050565b600060208201905081810360008301526129b28161264d565b9050919050565b600060208201905081810360008301526129d281612670565b9050919050565b600060208201905081810360008301526129f281612693565b9050919050565b60006020820190508181036000830152612a12816126b6565b9050919050565b6000602082019050612a2e60008301846126d9565b92915050565b6000612a3e612a4f565b9050612a4a8282612cfb565b919050565b6000604051905090565b600067ffffffffffffffff821115612a7457612a73612e33565b5b612a7d82612e62565b9050602081019050919050565b600067ffffffffffffffff821115612aa557612aa4612e33565b5b612aae82612e62565b9050602081019050919050565b600081519050919050565b600081519050919050565b600082825260208201905092915050565b600082825260208201905092915050565b600081905092915050565b6000612b0982612c7d565b9150612b1483612c7d565b9250827fffffffffffffffffffffffffffffffffffffffffffffffffffffffffffffffff03821115612b4957612b48612da6565b5b828201905092915050565b6000612b5f82612c7d565b9150612b6a83612c7d565b925082612b7a57612b79612dd5565b5b828204905092915050565b6000612b9082612c7d565b9150612b9b83612c7d565b9250817fffffffffffffffffffffffffffffffffffffffffffffffffffffffffffffffff0483118215151615612bd457612bd3612da6565b5b828202905092915050565b6000612bea82612c7d565b9150612bf583612c7d565b925082821015612c0857612c07612da6565b5b828203905092915050565b6000612c1e82612c5d565b9050919050565b60008115159050919050565b60007fffffffff0000000000000000000000000000000000000000000000000000000082169050919050565b600073ffffffffffffffffffffffffffffffffffffffff82169050919050565b6000819050919050565b82818337600083830152505050565b60005b83811015612cb4578082015181840152602081019050612c99565b83811115612cc3576000848401525b50505050565b60006002820490506001821680612ce157607f821691505b60208210811415612cf557612cf4612e04565b5b50919050565b612d0482612e62565b810181811067ffffffffffffffff82111715612d2357612d22612e33565b5b80604052505050565b6000612d3782612c7d565b91507fffffffffffffffffffffffffffffffffffffffffffffffffffffffffffffffff821415612d6a57612d69612da6565b5b600182019050919050565b6000612d8082612c7d565b9150612d8b83612c7d565b925082612d9b57612d9a612dd5565b5b828206905092915050565b7f4e487b7100000000000000000000000000000000000000000000000000000000600052601160045260246000fd5b7f4e487b7100000000000000000000000000000000000000000000000000000000600052601260045260246000fd5b7f4e487b7100000000000000000000000000000000000000000000000000000000600052602260045260246000fd5b7f4e487b7100000000000000000000000000000000000000000000000000000000600052604160045260246000fd5b6000601f19601f8301169050919050565b7f4552433732313a207472616e7366657220746f206e6f6e20455243373231526560008201527f63656976657220696d706c656d656e7465720000000000000000000000000000602082015250565b7f4f776e61626c653a206e6577206f776e657220697320746865207a65726f206160008201527f6464726573730000000000000000000000000000000000000000000000000000602082015250565b7f4552433732313a207472616e736665722066726f6d20696e636f72726563742060008201527f6f776e6572000000000000000000000000000000000000000000000000000000602082015250565b7f4552433732313a20746f6b656e20616c7265616479206d696e74656400000000600082015250565b7f4552433732313a207472616e7366657220746f20746865207a65726f2061646460008201527f7265737300000000000000000000000000000000000000000000000000000000602082015250565b7f4552433732313a20617070726f766520746f2063616c6c657200000000000000600082015250565b7f4552433732313a206f70657261746f7220717565727920666f72206e6f6e657860008201527f697374656e7420746f6b656e0000000000000000000000000000000000000000602082015250565b7f4552433732313a20617070726f76652063616c6c6572206973206e6f74206f7760008201527f6e6572206e6f7220617070726f76656420666f7220616c6c0000000000000000602082015250565b7f4552433732313a2062616c616e636520717565727920666f7220746865207a6560008201527f726f206164647265737300000000000000000000000000000000000000000000602082015250565b7f4552433732313a206f776e657220717565727920666f72206e6f6e657869737460008201527f656e7420746f6b656e0000000000000000000000000000000000000000000000602082015250565b7f45524337323155524953746f726167653a2055524920736574206f66206e6f6e60008201527f6578697374656e7420746f6b656e000000000000000000000000000000000000602082015250565b7f4552433732313a206d696e7420746f20746865207a65726f2061646472657373600082015250565b7f45524337323155524953746f726167653a2055524920717565727920666f722060008201527f6e6f6e6578697374656e7420746f6b656e000000000000000000000000000000602082015250565b7f4552433732313a20617070726f76656420717565727920666f72206e6f6e657860008201527f697374656e7420746f6b656e0000000000000000000000000000000000000000602082015250565b7f4f776e61626c653a2063616c6c6572206973206e6f7420746865206f776e6572600082015250565b7f4552433732314d657461646174613a2055524920717565727920666f72206e6f60008201527f6e6578697374656e7420746f6b656e0000000000000000000000000000000000602082015250565b7f4552433732313a20617070726f76616c20746f2063757272656e74206f776e6560008201527f7200000000000000000000000000000000000000000000000000000000000000602082015250565b7f4552433732313a207472616e736665722063616c6c6572206973206e6f74206f60008201527f776e6572206e6f7220617070726f766564000000000000000000000000000000602082015250565b61337281612c13565b811461337d57600080fd5b50565b61338981612c25565b811461339457600080fd5b50565b6133a081612c31565b81146133ab57600080fd5b50565b6133b781612c7d565b81146133c257600080fd5b5056fea2646970667358221220dce9ac7bc08396191ef6e7bab342d2448e2217d7cb92299dcc6d83928411d4f764736f6c63430008040033",
    "linkReferences": {},
    "deployedLinkReferences": {}
}