{
   "_format": "hh-sol-artifact-1",
   "contractName": "lostandfound_vol_1",
   "sourceName": "contracts/lostandfound_vol_1_v2.sol",
   "abi": [
      {
         "inputs": [],
         "stateMutability": "nonpayable",
         "type": "constructor"
      },
      {
         "anonymous": false,
         "inputs": [
            {
               "indexed": true,
               "internalType": "address",
               "name": "owner",
               "type": "address"
            },
            {
               "indexed": true,
               "internalType": "address",
               "name": "approved",
               "type": "address"
            },
            {
               "indexed": true,
               "internalType": "uint256",
               "name": "tokenId",
               "type": "uint256"
            }
         ],
         "name": "Approval",
         "type": "event"
      },
      {
         "anonymous": false,
         "inputs": [
            {
               "indexed": true,
               "internalType": "address",
               "name": "owner",
               "type": "address"
            },
            {
               "indexed": true,
               "internalType": "address",
               "name": "operator",
               "type": "address"
            },
            {
               "indexed": false,
               "internalType": "bool",
               "name": "approved",
               "type": "bool"
            }
         ],
         "name": "ApprovalForAll",
         "type": "event"
      },
      {
         "anonymous": false,
         "inputs": [
            {
               "indexed": true,
               "internalType": "address",
               "name": "previousOwner",
               "type": "address"
            },
            {
               "indexed": true,
               "internalType": "address",
               "name": "newOwner",
               "type": "address"
            }
         ],
         "name": "OwnershipTransferred",
         "type": "event"
      },
      {
         "anonymous": false,
         "inputs": [
            {
               "indexed": true,
               "internalType": "address",
               "name": "from",
               "type": "address"
            },
            {
               "indexed": true,
               "internalType": "address",
               "name": "to",
               "type": "address"
            },
            {
               "indexed": true,
               "internalType": "uint256",
               "name": "tokenId",
               "type": "uint256"
            }
         ],
         "name": "Transfer",
         "type": "event"
      },
      {
         "inputs": [
            {
               "internalType": "address",
               "name": "to",
               "type": "address"
            },
            {
               "internalType": "uint256",
               "name": "tokenId",
               "type": "uint256"
            }
         ],
         "name": "approve",
         "outputs": [],
         "stateMutability": "nonpayable",
         "type": "function"
      },
      {
         "inputs": [
            {
               "internalType": "address",
               "name": "owner",
               "type": "address"
            }
         ],
         "name": "balanceOf",
         "outputs": [
            {
               "internalType": "uint256",
               "name": "",
               "type": "uint256"
            }
         ],
         "stateMutability": "view",
         "type": "function"
      },
      {
         "inputs": [
            {
               "internalType": "uint256",
               "name": "tokenId",
               "type": "uint256"
            }
         ],
         "name": "getApproved",
         "outputs": [
            {
               "internalType": "address",
               "name": "",
               "type": "address"
            }
         ],
         "stateMutability": "view",
         "type": "function"
      },
      {
         "inputs": [],
         "name": "getBaseURI",
         "outputs": [
            {
               "internalType": "string",
               "name": "",
               "type": "string"
            }
         ],
         "stateMutability": "view",
         "type": "function"
      },
      {
         "inputs": [],
         "name": "getLastTokenId",
         "outputs": [
            {
               "internalType": "uint256",
               "name": "",
               "type": "uint256"
            }
         ],
         "stateMutability": "view",
         "type": "function"
      },
      {
         "inputs": [
            {
               "internalType": "address",
               "name": "owner",
               "type": "address"
            },
            {
               "internalType": "address",
               "name": "operator",
               "type": "address"
            }
         ],
         "name": "isApprovedForAll",
         "outputs": [
            {
               "internalType": "bool",
               "name": "",
               "type": "bool"
            }
         ],
         "stateMutability": "view",
         "type": "function"
      },
      {
         "inputs": [],
         "name": "maxTokensInMintPhase",
         "outputs": [
            {
               "internalType": "uint256",
               "name": "",
               "type": "uint256"
            }
         ],
         "stateMutability": "view",
         "type": "function"
      },
      {
         "inputs": [
            {
               "internalType": "uint256",
               "name": "numberOfTokens",
               "type": "uint256"
            }
         ],
         "name": "mint",
         "outputs": [],
         "stateMutability": "payable",
         "type": "function"
      },
      {
         "inputs": [],
         "name": "mintPrice",
         "outputs": [
            {
               "internalType": "uint256",
               "name": "",
               "type": "uint256"
            }
         ],
         "stateMutability": "view",
         "type": "function"
      },
      {
         "inputs": [],
         "name": "name",
         "outputs": [
            {
               "internalType": "string",
               "name": "",
               "type": "string"
            }
         ],
         "stateMutability": "view",
         "type": "function"
      },
      {
         "inputs": [],
         "name": "owner",
         "outputs": [
            {
               "internalType": "address",
               "name": "",
               "type": "address"
            }
         ],
         "stateMutability": "view",
         "type": "function"
      },
      {
         "inputs": [
            {
               "internalType": "uint256",
               "name": "tokenId",
               "type": "uint256"
            }
         ],
         "name": "ownerOf",
         "outputs": [
            {
               "internalType": "address",
               "name": "",
               "type": "address"
            }
         ],
         "stateMutability": "view",
         "type": "function"
      },
      {
         "inputs": [],
         "name": "renounceOwnership",
         "outputs": [],
         "stateMutability": "nonpayable",
         "type": "function"
      },
      {
         "inputs": [
            {
               "internalType": "uint256",
               "name": "_tokenId",
               "type": "uint256"
            },
            {
               "internalType": "uint256",
               "name": "_salePrice",
               "type": "uint256"
            }
         ],
         "name": "royaltyInfo",
         "outputs": [
            {
               "internalType": "address",
               "name": "",
               "type": "address"
            },
            {
               "internalType": "uint256",
               "name": "",
               "type": "uint256"
            }
         ],
         "stateMutability": "view",
         "type": "function"
      },
      {
         "inputs": [
            {
               "internalType": "address",
               "name": "from",
               "type": "address"
            },
            {
               "internalType": "address",
               "name": "to",
               "type": "address"
            },
            {
               "internalType": "uint256",
               "name": "tokenId",
               "type": "uint256"
            }
         ],
         "name": "safeTransferFrom",
         "outputs": [],
         "stateMutability": "nonpayable",
         "type": "function"
      },
      {
         "inputs": [
            {
               "internalType": "address",
               "name": "from",
               "type": "address"
            },
            {
               "internalType": "address",
               "name": "to",
               "type": "address"
            },
            {
               "internalType": "uint256",
               "name": "tokenId",
               "type": "uint256"
            },
            {
               "internalType": "bytes",
               "name": "_data",
               "type": "bytes"
            }
         ],
         "name": "safeTransferFrom",
         "outputs": [],
         "stateMutability": "nonpayable",
         "type": "function"
      },
      {
         "inputs": [
            {
               "internalType": "address",
               "name": "operator",
               "type": "address"
            },
            {
               "internalType": "bool",
               "name": "approved",
               "type": "bool"
            }
         ],
         "name": "setApprovalForAll",
         "outputs": [],
         "stateMutability": "nonpayable",
         "type": "function"
      },
      {
         "inputs": [
            {
               "internalType": "string",
               "name": "_baseURI",
               "type": "string"
            }
         ],
         "name": "setBaseURI",
         "outputs": [],
         "stateMutability": "nonpayable",
         "type": "function"
      },
      {
         "inputs": [
            {
               "internalType": "string",
               "name": "_contractURI",
               "type": "string"
            }
         ],
         "name": "setContractURI",
         "outputs": [],
         "stateMutability": "nonpayable",
         "type": "function"
      },
      {
         "inputs": [
            {
               "internalType": "address",
               "name": "_receiver",
               "type": "address"
            },
            {
               "internalType": "uint96",
               "name": "_royaltyFeesInBips",
               "type": "uint96"
            }
         ],
         "name": "setRoyaltyInfo",
         "outputs": [],
         "stateMutability": "nonpayable",
         "type": "function"
      },
      {
         "inputs": [
            {
               "internalType": "bytes4",
               "name": "interfaceId",
               "type": "bytes4"
            }
         ],
         "name": "supportsInterface",
         "outputs": [
            {
               "internalType": "bool",
               "name": "",
               "type": "bool"
            }
         ],
         "stateMutability": "view",
         "type": "function"
      },
      {
         "inputs": [],
         "name": "symbol",
         "outputs": [
            {
               "internalType": "string",
               "name": "",
               "type": "string"
            }
         ],
         "stateMutability": "view",
         "type": "function"
      },
      {
         "inputs": [
            {
               "internalType": "uint256",
               "name": "tokenId",
               "type": "uint256"
            }
         ],
         "name": "tokenURI",
         "outputs": [
            {
               "internalType": "string",
               "name": "",
               "type": "string"
            }
         ],
         "stateMutability": "view",
         "type": "function"
      },
      {
         "inputs": [],
         "name": "totalSupply",
         "outputs": [
            {
               "internalType": "uint256",
               "name": "",
               "type": "uint256"
            }
         ],
         "stateMutability": "view",
         "type": "function"
      },
      {
         "inputs": [
            {
               "internalType": "address",
               "name": "from",
               "type": "address"
            },
            {
               "internalType": "address",
               "name": "to",
               "type": "address"
            },
            {
               "internalType": "uint256",
               "name": "tokenId",
               "type": "uint256"
            }
         ],
         "name": "transferFrom",
         "outputs": [],
         "stateMutability": "nonpayable",
         "type": "function"
      },
      {
         "inputs": [
            {
               "internalType": "address",
               "name": "newOwner",
               "type": "address"
            }
         ],
         "name": "transferOwnership",
         "outputs": [],
         "stateMutability": "nonpayable",
         "type": "function"
      },
      {
         "inputs": [],
         "name": "withdraw",
         "outputs": [],
         "stateMutability": "nonpayable",
         "type": "function"
      },
      {
         "inputs": [
            {
               "internalType": "contract IERC20",
               "name": "token",
               "type": "address"
            }
         ],
         "name": "withdrawTokens",
         "outputs": [],
         "stateMutability": "nonpayable",
         "type": "function"
      }
   ],
   "bytecode": "0x60806040523480156200001157600080fd5b506040518060400160405280601381526020017f4c6f7374202620466f756e6420566f6c2e2031000000000000000000000000008152506040518060400160405280600381526020017f4c46310000000000000000000000000000000000000000000000000000000000815250816000908051906020019062000096929190620001ae565b508060019080519060200190620000af929190620001ae565b505050620000d2620000c6620000e060201b60201c565b620000e860201b60201c565b6001600a81905550620002c3565b600033905090565b6000600960009054906101000a900473ffffffffffffffffffffffffffffffffffffffff16905081600960006101000a81548173ffffffffffffffffffffffffffffffffffffffff021916908373ffffffffffffffffffffffffffffffffffffffff1602179055508173ffffffffffffffffffffffffffffffffffffffff168173ffffffffffffffffffffffffffffffffffffffff167f8be0079c531659141344cd1fd0a4f28419497f9722a3daafe3b4186f6b6457e060405160405180910390a35050565b828054620001bc906200025e565b90600052602060002090601f016020900481019282620001e057600085556200022c565b82601f10620001fb57805160ff19168380011785556200022c565b828001600101855582156200022c579182015b828111156200022b5782518255916020019190600101906200020e565b5b5090506200023b91906200023f565b5090565b5b808211156200025a57600081600090555060010162000240565b5090565b600060028204905060018216806200027757607f821691505b602082108114156200028e576200028d62000294565b5b50919050565b7f4e487b7100000000000000000000000000000000000000000000000000000000600052602260045260246000fd5b61419480620002d36000396000f3fe6080604052600436106101b75760003560e01c806370a08231116100ec578063a0712d681161008a578063c87b56dd11610064578063c87b56dd146105d6578063d6aef79f14610613578063e985e9c51461063e578063f2fde38b1461067b576101b7565b8063a0712d6814610568578063a22cb46514610584578063b88d4fde146105ad576101b7565b806383c4c00d116100c657806383c4c00d146104be5780638da5cb5b146104e9578063938e3d7b1461051457806395d89b411461053d576101b7565b806370a082311461043f578063714c53981461047c578063715018a6146104a7576101b7565b80632a55205a1161015957806349df728c1161013357806349df728c1461038557806355f804b3146103ae5780636352211e146103d75780636817c76c14610414576101b7565b80632a55205a146103075780633ccfd60b1461034557806342842e0e1461035c576101b7565b8063081812fc11610195578063081812fc1461024d578063095ea7b31461028a57806318160ddd146102b357806323b872dd146102de576101b7565b806301ffc9a7146101bc57806302fa7c47146101f957806306fdde0314610222575b600080fd5b3480156101c857600080fd5b506101e360048036038101906101de9190612da4565b6106a4565b6040516101f091906133b9565b60405180910390f35b34801561020557600080fd5b50610220600480360381019061021b9190612d3f565b6106b6565b005b34801561022e57600080fd5b50610237610740565b60405161024491906133d4565b60405180910390f35b34801561025957600080fd5b50610274600480360381019061026f9190612ea5565b6107d2565b6040516102819190613329565b60405180910390f35b34801561029657600080fd5b506102b160048036038101906102ac9190612d03565b610857565b005b3480156102bf57600080fd5b506102c861096f565b6040516102d591906136b6565b60405180910390f35b3480156102ea57600080fd5b5061030560048036038101906103009190612bfd565b610974565b005b34801561031357600080fd5b5061032e60048036038101906103299190612ef7565b6109d4565b60405161033c929190613390565b60405180910390f35b34801561035157600080fd5b5061035a610bbf565b005b34801561036857600080fd5b50610383600480360381019061037e9190612bfd565b610c8a565b005b34801561039157600080fd5b506103ac60048036038101906103a79190612df6565b610caa565b005b3480156103ba57600080fd5b506103d560048036038101906103d09190612e64565b610e45565b005b3480156103e357600080fd5b506103fe60048036038101906103f99190612ea5565b610edb565b60405161040b9190613329565b60405180910390f35b34801561042057600080fd5b50610429610f8d565b60405161043691906136b6565b60405180910390f35b34801561044b57600080fd5b5061046660048036038101906104619190612b98565b610f98565b60405161047391906136b6565b60405180910390f35b34801561048857600080fd5b50610491611050565b60405161049e91906133d4565b60405180910390f35b3480156104b357600080fd5b506104bc6110e2565b005b3480156104ca57600080fd5b506104d361116a565b6040516104e091906136b6565b60405180910390f35b3480156104f557600080fd5b506104fe61117b565b60405161050b9190613329565b60405180910390f35b34801561052057600080fd5b5061053b60048036038101906105369190612e1f565b6111a5565b005b34801561054957600080fd5b50610552611237565b60405161055f91906133d4565b60405180910390f35b610582600480360381019061057d9190612ea5565b6112c9565b005b34801561059057600080fd5b506105ab60048036038101906105a69190612cc7565b611403565b005b3480156105b957600080fd5b506105d460048036038101906105cf9190612c4c565b611419565b005b3480156105e257600080fd5b506105fd60048036038101906105f89190612ea5565b61147b565b60405161060a91906133d4565b60405180910390f35b34801561061f57600080fd5b5061062861148d565b60405161063591906136b6565b60405180910390f35b34801561064a57600080fd5b5061066560048036038101906106609190612bc1565b611492565b60405161067291906133b9565b60405180910390f35b34801561068757600080fd5b506106a2600480360381019061069d9190612b98565b611526565b005b60006106af8261161e565b9050919050565b6106be611698565b73ffffffffffffffffffffffffffffffffffffffff166106dc61117b565b73ffffffffffffffffffffffffffffffffffffffff1614610732576040517f08c379a0000000000000000000000000000000000000000000000000000000008152600401610729906135b6565b60405180910390fd5b61073c82826116a0565b5050565b60606000805461074f90613990565b80601f016020809104026020016040519081016040528092919081815260200182805461077b90613990565b80156107c85780601f1061079d576101008083540402835291602001916107c8565b820191906000526020600020905b8154815290600101906020018083116107ab57829003601f168201915b5050505050905090565b60006107dd82611836565b61081c576040517f08c379a000000000000000000000000000000000000000000000000000000000815260040161081390613596565b60405180910390fd5b6004600083815260200190815260200160002060009054906101000a900473ffffffffffffffffffffffffffffffffffffffff169050919050565b600061086282610edb565b90508073ffffffffffffffffffffffffffffffffffffffff168373ffffffffffffffffffffffffffffffffffffffff1614156108d3576040517f08c379a00000000000000000000000000000000000000000000000000000000081526004016108ca906135f6565b60405180910390fd5b8073ffffffffffffffffffffffffffffffffffffffff166108f2611698565b73ffffffffffffffffffffffffffffffffffffffff16148061092157506109208161091b611698565b611492565b5b610960576040517f08c379a0000000000000000000000000000000000000000000000000000000008152600401610957906134d6565b60405180910390fd5b61096a83836118a2565b505050565b606481565b61098561097f611698565b8261195b565b6109c4576040517f08c379a00000000000000000000000000000000000000000000000000000000081526004016109bb90613616565b60405180910390fd5b6109cf838383611a39565b505050565b6000806000600860008681526020019081526020016000206040518060400160405290816000820160009054906101000a900473ffffffffffffffffffffffffffffffffffffffff1673ffffffffffffffffffffffffffffffffffffffff1673ffffffffffffffffffffffffffffffffffffffff1681526020016000820160149054906101000a90046bffffffffffffffffffffffff166bffffffffffffffffffffffff166bffffffffffffffffffffffff16815250509050600073ffffffffffffffffffffffffffffffffffffffff16816000015173ffffffffffffffffffffffffffffffffffffffff161415610b6a5760076040518060400160405290816000820160009054906101000a900473ffffffffffffffffffffffffffffffffffffffff1673ffffffffffffffffffffffffffffffffffffffff1673ffffffffffffffffffffffffffffffffffffffff1681526020016000820160149054906101000a90046bffffffffffffffffffffffff166bffffffffffffffffffffffff166bffffffffffffffffffffffff168152505090505b6000610b74611ca0565b6bffffffffffffffffffffffff1682602001516bffffffffffffffffffffffff1686610ba09190613822565b610baa91906137f1565b90508160000151819350935050509250929050565b610bc7611698565b73ffffffffffffffffffffffffffffffffffffffff16610be561117b565b73ffffffffffffffffffffffffffffffffffffffff1614610c3b576040517f08c379a0000000000000000000000000000000000000000000000000000000008152600401610c32906135b6565b60405180910390fd5b60004790503373ffffffffffffffffffffffffffffffffffffffff166108fc829081150290604051600060405180830381858888f19350505050158015610c86573d6000803e3d6000fd5b5050565b610ca583838360405180602001604052806000815250611419565b505050565b610cb2611698565b73ffffffffffffffffffffffffffffffffffffffff16610cd061117b565b73ffffffffffffffffffffffffffffffffffffffff1614610d26576040517f08c379a0000000000000000000000000000000000000000000000000000000008152600401610d1d906135b6565b60405180910390fd5b60008173ffffffffffffffffffffffffffffffffffffffff166370a08231306040518263ffffffff1660e01b8152600401610d619190613329565b60206040518083038186803b158015610d7957600080fd5b505afa158015610d8d573d6000803e3d6000fd5b505050506040513d601f19601f82011682018060405250810190610db19190612ece565b90508173ffffffffffffffffffffffffffffffffffffffff1663a9059cbb33836040518363ffffffff1660e01b8152600401610dee929190613390565b602060405180830381600087803b158015610e0857600080fd5b505af1158015610e1c573d6000803e3d6000fd5b505050506040513d601f19601f82011682018060405250810190610e409190612d7b565b505050565b610e4d611698565b73ffffffffffffffffffffffffffffffffffffffff16610e6b61117b565b73ffffffffffffffffffffffffffffffffffffffff1614610ec1576040517f08c379a0000000000000000000000000000000000000000000000000000000008152600401610eb8906135b6565b60405180910390fd5b80600c9080519060200190610ed7929190612898565b5050565b6000806002600084815260200190815260200160002060009054906101000a900473ffffffffffffffffffffffffffffffffffffffff169050600073ffffffffffffffffffffffffffffffffffffffff168173ffffffffffffffffffffffffffffffffffffffff161415610f84576040517f08c379a0000000000000000000000000000000000000000000000000000000008152600401610f7b90613516565b60405180910390fd5b80915050919050565b662386f26fc1000081565b60008073ffffffffffffffffffffffffffffffffffffffff168273ffffffffffffffffffffffffffffffffffffffff161415611009576040517f08c379a0000000000000000000000000000000000000000000000000000000008152600401611000906134f6565b60405180910390fd5b600360008373ffffffffffffffffffffffffffffffffffffffff1673ffffffffffffffffffffffffffffffffffffffff168152602001908152602001600020549050919050565b6060600c805461105f90613990565b80601f016020809104026020016040519081016040528092919081815260200182805461108b90613990565b80156110d85780601f106110ad576101008083540402835291602001916110d8565b820191906000526020600020905b8154815290600101906020018083116110bb57829003601f168201915b5050505050905090565b6110ea611698565b73ffffffffffffffffffffffffffffffffffffffff1661110861117b565b73ffffffffffffffffffffffffffffffffffffffff161461115e576040517f08c379a0000000000000000000000000000000000000000000000000000000008152600401611155906135b6565b60405180910390fd5b6111686000611caa565b565b6000611176600b611d70565b905090565b6000600960009054906101000a900473ffffffffffffffffffffffffffffffffffffffff16905090565b6111ad611698565b73ffffffffffffffffffffffffffffffffffffffff166111cb61117b565b73ffffffffffffffffffffffffffffffffffffffff1614611221576040517f08c379a0000000000000000000000000000000000000000000000000000000008152600401611218906135b6565b60405180910390fd5b8181600d919061123292919061291e565b505050565b60606001805461124690613990565b80601f016020809104026020016040519081016040528092919081815260200182805461127290613990565b80156112bf5780601f10611294576101008083540402835291602001916112bf565b820191906000526020600020905b8154815290600101906020018083116112a257829003601f168201915b5050505050905090565b6002600a54141561130f576040517f08c379a000000000000000000000000000000000000000000000000000000000815260040161130690613676565b60405180910390fd5b6002600a81905550662386f26fc100008134818361132d9190613822565b1461136d576040517f08c379a000000000000000000000000000000000000000000000000000000000815260040161136490613656565b60405180910390fd5b82600a8161137a33610f98565b611384919061379b565b11156113c5576040517f08c379a00000000000000000000000000000000000000000000000000000000081526004016113bc90613536565b60405180910390fd5b60005b848110156113f4576113e1336113dc611d7e565b611d99565b80806113ec906139f3565b9150506113c8565b505050506001600a8190555050565b61141561140e611698565b8383611db7565b5050565b61142a611424611698565b8361195b565b611469576040517f08c379a000000000000000000000000000000000000000000000000000000000815260040161146090613616565b60405180910390fd5b61147584848484611f24565b50505050565b606061148682611f80565b9050919050565b600a81565b6000600560008473ffffffffffffffffffffffffffffffffffffffff1673ffffffffffffffffffffffffffffffffffffffff16815260200190815260200160002060008373ffffffffffffffffffffffffffffffffffffffff1673ffffffffffffffffffffffffffffffffffffffff16815260200190815260200160002060009054906101000a900460ff16905092915050565b61152e611698565b73ffffffffffffffffffffffffffffffffffffffff1661154c61117b565b73ffffffffffffffffffffffffffffffffffffffff16146115a2576040517f08c379a0000000000000000000000000000000000000000000000000000000008152600401611599906135b6565b60405180910390fd5b600073ffffffffffffffffffffffffffffffffffffffff168173ffffffffffffffffffffffffffffffffffffffff161415611612576040517f08c379a000000000000000000000000000000000000000000000000000000000815260040161160990613416565b60405180910390fd5b61161b81611caa565b50565b60007f2a55205a000000000000000000000000000000000000000000000000000000007bffffffffffffffffffffffffffffffffffffffffffffffffffffffff1916827bffffffffffffffffffffffffffffffffffffffffffffffffffffffff191614806116915750611690826120d2565b5b9050919050565b600033905090565b6116a8611ca0565b6bffffffffffffffffffffffff16816bffffffffffffffffffffffff161115611706576040517f08c379a00000000000000000000000000000000000000000000000000000000081526004016116fd90613636565b60405180910390fd5b600073ffffffffffffffffffffffffffffffffffffffff168273ffffffffffffffffffffffffffffffffffffffff161415611776576040517f08c379a000000000000000000000000000000000000000000000000000000000815260040161176d90613696565b60405180910390fd5b60405180604001604052808373ffffffffffffffffffffffffffffffffffffffff168152602001826bffffffffffffffffffffffff16815250600760008201518160000160006101000a81548173ffffffffffffffffffffffffffffffffffffffff021916908373ffffffffffffffffffffffffffffffffffffffff16021790555060208201518160000160146101000a8154816bffffffffffffffffffffffff02191690836bffffffffffffffffffffffff1602179055509050505050565b60008073ffffffffffffffffffffffffffffffffffffffff166002600084815260200190815260200160002060009054906101000a900473ffffffffffffffffffffffffffffffffffffffff1673ffffffffffffffffffffffffffffffffffffffff1614159050919050565b816004600083815260200190815260200160002060006101000a81548173ffffffffffffffffffffffffffffffffffffffff021916908373ffffffffffffffffffffffffffffffffffffffff160217905550808273ffffffffffffffffffffffffffffffffffffffff1661191583610edb565b73ffffffffffffffffffffffffffffffffffffffff167f8c5be1e5ebec7d5bd14f71427d1e84f3dd0314c0f7b2291e5b200ac8c7c3b92560405160405180910390a45050565b600061196682611836565b6119a5576040517f08c379a000000000000000000000000000000000000000000000000000000000815260040161199c906134b6565b60405180910390fd5b60006119b083610edb565b90508073ffffffffffffffffffffffffffffffffffffffff168473ffffffffffffffffffffffffffffffffffffffff161480611a1f57508373ffffffffffffffffffffffffffffffffffffffff16611a07846107d2565b73ffffffffffffffffffffffffffffffffffffffff16145b80611a305750611a2f8185611492565b5b91505092915050565b8273ffffffffffffffffffffffffffffffffffffffff16611a5982610edb565b73ffffffffffffffffffffffffffffffffffffffff1614611aaf576040517f08c379a0000000000000000000000000000000000000000000000000000000008152600401611aa690613436565b60405180910390fd5b600073ffffffffffffffffffffffffffffffffffffffff168273ffffffffffffffffffffffffffffffffffffffff161415611b1f576040517f08c379a0000000000000000000000000000000000000000000000000000000008152600401611b1690613476565b60405180910390fd5b611b2a8383836121b4565b611b356000826118a2565b6001600360008573ffffffffffffffffffffffffffffffffffffffff1673ffffffffffffffffffffffffffffffffffffffff1681526020019081526020016000206000828254611b85919061387c565b925050819055506001600360008473ffffffffffffffffffffffffffffffffffffffff1673ffffffffffffffffffffffffffffffffffffffff1681526020019081526020016000206000828254611bdc919061379b565b92505081905550816002600083815260200190815260200160002060006101000a81548173ffffffffffffffffffffffffffffffffffffffff021916908373ffffffffffffffffffffffffffffffffffffffff160217905550808273ffffffffffffffffffffffffffffffffffffffff168473ffffffffffffffffffffffffffffffffffffffff167fddf252ad1be2c89b69c2b068fc378daa952ba7f163c4a11628f55a4df523b3ef60405160405180910390a4611c9b8383836121b9565b505050565b6000612710905090565b6000600960009054906101000a900473ffffffffffffffffffffffffffffffffffffffff16905081600960006101000a81548173ffffffffffffffffffffffffffffffffffffffff021916908373ffffffffffffffffffffffffffffffffffffffff1602179055508173ffffffffffffffffffffffffffffffffffffffff168173ffffffffffffffffffffffffffffffffffffffff167f8be0079c531659141344cd1fd0a4f28419497f9722a3daafe3b4186f6b6457e060405160405180910390a35050565b600081600001549050919050565b6000611d8a600b6121be565b611d94600b611d70565b905090565b611db38282604051806020016040528060008152506121d4565b5050565b8173ffffffffffffffffffffffffffffffffffffffff168373ffffffffffffffffffffffffffffffffffffffff161415611e26576040517f08c379a0000000000000000000000000000000000000000000000000000000008152600401611e1d90613496565b60405180910390fd5b80600560008573ffffffffffffffffffffffffffffffffffffffff1673ffffffffffffffffffffffffffffffffffffffff16815260200190815260200160002060008473ffffffffffffffffffffffffffffffffffffffff1673ffffffffffffffffffffffffffffffffffffffff16815260200190815260200160002060006101000a81548160ff0219169083151502179055508173ffffffffffffffffffffffffffffffffffffffff168373ffffffffffffffffffffffffffffffffffffffff167f17307eab39ab6107e8899845ad3d59bd9653f200f220920489ca2b5937696c3183604051611f1791906133b9565b60405180910390a3505050565b611f2f848484611a39565b611f3b8484848461222f565b611f7a576040517f08c379a0000000000000000000000000000000000000000000000000000000008152600401611f71906133f6565b60405180910390fd5b50505050565b6060611f8b82611836565b611fca576040517f08c379a0000000000000000000000000000000000000000000000000000000008152600401611fc190613576565b60405180910390fd5b6000600660008481526020019081526020016000208054611fea90613990565b80601f016020809104026020016040519081016040528092919081815260200182805461201690613990565b80156120635780601f1061203857610100808354040283529160200191612063565b820191906000526020600020905b81548152906001019060200180831161204657829003601f168201915b5050505050905060006120746123c6565b905060008151141561208a5781925050506120cd565b6000825111156120bf5780826040516020016120a7929190613305565b604051602081830303815290604052925050506120cd565b6120c8846123dd565b925050505b919050565b60007f80ac58cd000000000000000000000000000000000000000000000000000000007bffffffffffffffffffffffffffffffffffffffffffffffffffffffff1916827bffffffffffffffffffffffffffffffffffffffffffffffffffffffff1916148061219d57507f5b5e139f000000000000000000000000000000000000000000000000000000007bffffffffffffffffffffffffffffffffffffffffffffffffffffffff1916827bffffffffffffffffffffffffffffffffffffffffffffffffffffffff1916145b806121ad57506121ac82612484565b5b9050919050565b505050565b505050565b6001816000016000828254019250508190555050565b6121de83836124ee565b6121eb600084848461222f565b61222a576040517f08c379a0000000000000000000000000000000000000000000000000000000008152600401612221906133f6565b60405180910390fd5b505050565b60006122508473ffffffffffffffffffffffffffffffffffffffff166126c8565b156123b9578373ffffffffffffffffffffffffffffffffffffffff1663150b7a02612279611698565b8786866040518563ffffffff1660e01b815260040161229b9493929190613344565b602060405180830381600087803b1580156122b557600080fd5b505af19250505080156122e657506040513d601f19601f820116820180604052508101906122e39190612dcd565b60015b612369573d8060008114612316576040519150601f19603f3d011682016040523d82523d6000602084013e61231b565b606091505b50600081511415612361576040517f08c379a0000000000000000000000000000000000000000000000000000000008152600401612358906133f6565b60405180910390fd5b805181602001fd5b63150b7a0260e01b7bffffffffffffffffffffffffffffffffffffffffffffffffffffffff1916817bffffffffffffffffffffffffffffffffffffffffffffffffffffffff1916149150506123be565b600190505b949350505050565b606060405180602001604052806000815250905090565b60606123e882611836565b612427576040517f08c379a000000000000000000000000000000000000000000000000000000000815260040161241e906135d6565b60405180910390fd5b60006124316123c6565b90506000815111612451576040518060200160405280600081525061247c565b8061245b846126eb565b60405160200161246c929190613305565b6040516020818303038152906040525b915050919050565b60007f01ffc9a7000000000000000000000000000000000000000000000000000000007bffffffffffffffffffffffffffffffffffffffffffffffffffffffff1916827bffffffffffffffffffffffffffffffffffffffffffffffffffffffff1916149050919050565b600073ffffffffffffffffffffffffffffffffffffffff168273ffffffffffffffffffffffffffffffffffffffff16141561255e576040517f08c379a000000000000000000000000000000000000000000000000000000000815260040161255590613556565b60405180910390fd5b61256781611836565b156125a7576040517f08c379a000000000000000000000000000000000000000000000000000000000815260040161259e90613456565b60405180910390fd5b6125b3600083836121b4565b6001600360008473ffffffffffffffffffffffffffffffffffffffff1673ffffffffffffffffffffffffffffffffffffffff1681526020019081526020016000206000828254612603919061379b565b92505081905550816002600083815260200190815260200160002060006101000a81548173ffffffffffffffffffffffffffffffffffffffff021916908373ffffffffffffffffffffffffffffffffffffffff160217905550808273ffffffffffffffffffffffffffffffffffffffff16600073ffffffffffffffffffffffffffffffffffffffff167fddf252ad1be2c89b69c2b068fc378daa952ba7f163c4a11628f55a4df523b3ef60405160405180910390a46126c4600083836121b9565b5050565b6000808273ffffffffffffffffffffffffffffffffffffffff163b119050919050565b60606000821415612733576040518060400160405280600181526020017f30000000000000000000000000000000000000000000000000000000000000008152509050612893565b600082905060005b6000821461276557808061274e906139f3565b915050600a8261275e91906137f1565b915061273b565b60008167ffffffffffffffff8111156127a7577f4e487b7100000000000000000000000000000000000000000000000000000000600052604160045260246000fd5b6040519080825280601f01601f1916602001820160405280156127d95781602001600182028036833780820191505090505b5090505b6000851461288c576001826127f2919061387c565b9150600a856128019190613a3c565b603061280d919061379b565b60f81b818381518110612849577f4e487b7100000000000000000000000000000000000000000000000000000000600052603260045260246000fd5b60200101907effffffffffffffffffffffffffffffffffffffffffffffffffffffffffffff1916908160001a905350600a8561288591906137f1565b94506127dd565b8093505050505b919050565b8280546128a490613990565b90600052602060002090601f0160209004810192826128c6576000855561290d565b82601f106128df57805160ff191683800117855561290d565b8280016001018555821561290d579182015b8281111561290c5782518255916020019190600101906128f1565b5b50905061291a91906129a4565b5090565b82805461292a90613990565b90600052602060002090601f01602090048101928261294c5760008555612993565b82601f1061296557803560ff1916838001178555612993565b82800160010185558215612993579182015b82811115612992578235825591602001919060010190612977565b5b5090506129a091906129a4565b5090565b5b808211156129bd5760008160009055506001016129a5565b5090565b60006129d46129cf846136f6565b6136d1565b9050828152602081018484840111156129ec57600080fd5b6129f784828561394e565b509392505050565b6000612a12612a0d84613727565b6136d1565b905082815260208101848484011115612a2a57600080fd5b612a3584828561394e565b509392505050565b600081359050612a4c816140d4565b92915050565b600081359050612a61816140eb565b92915050565b600081519050612a76816140eb565b92915050565b600081359050612a8b81614102565b92915050565b600081519050612aa081614102565b92915050565b600082601f830112612ab757600080fd5b8135612ac78482602086016129c1565b91505092915050565b600081359050612adf81614119565b92915050565b60008083601f840112612af757600080fd5b8235905067ffffffffffffffff811115612b1057600080fd5b602083019150836001820283011115612b2857600080fd5b9250929050565b600082601f830112612b4057600080fd5b8135612b508482602086016129ff565b91505092915050565b600081359050612b6881614130565b92915050565b600081519050612b7d81614130565b92915050565b600081359050612b9281614147565b92915050565b600060208284031215612baa57600080fd5b6000612bb884828501612a3d565b91505092915050565b60008060408385031215612bd457600080fd5b6000612be285828601612a3d565b9250506020612bf385828601612a3d565b9150509250929050565b600080600060608486031215612c1257600080fd5b6000612c2086828701612a3d565b9350506020612c3186828701612a3d565b9250506040612c4286828701612b59565b9150509250925092565b60008060008060808587031215612c6257600080fd5b6000612c7087828801612a3d565b9450506020612c8187828801612a3d565b9350506040612c9287828801612b59565b925050606085013567ffffffffffffffff811115612caf57600080fd5b612cbb87828801612aa6565b91505092959194509250565b60008060408385031215612cda57600080fd5b6000612ce885828601612a3d565b9250506020612cf985828601612a52565b9150509250929050565b60008060408385031215612d1657600080fd5b6000612d2485828601612a3d565b9250506020612d3585828601612b59565b9150509250929050565b60008060408385031215612d5257600080fd5b6000612d6085828601612a3d565b9250506020612d7185828601612b83565b9150509250929050565b600060208284031215612d8d57600080fd5b6000612d9b84828501612a67565b91505092915050565b600060208284031215612db657600080fd5b6000612dc484828501612a7c565b91505092915050565b600060208284031215612ddf57600080fd5b6000612ded84828501612a91565b91505092915050565b600060208284031215612e0857600080fd5b6000612e1684828501612ad0565b91505092915050565b60008060208385031215612e3257600080fd5b600083013567ffffffffffffffff811115612e4c57600080fd5b612e5885828601612ae5565b92509250509250929050565b600060208284031215612e7657600080fd5b600082013567ffffffffffffffff811115612e9057600080fd5b612e9c84828501612b2f565b91505092915050565b600060208284031215612eb757600080fd5b6000612ec584828501612b59565b91505092915050565b600060208284031215612ee057600080fd5b6000612eee84828501612b6e565b91505092915050565b60008060408385031215612f0a57600080fd5b6000612f1885828601612b59565b9250506020612f2985828601612b59565b9150509250929050565b612f3c816138b0565b82525050565b612f4b816138c2565b82525050565b6000612f5c82613758565b612f66818561376e565b9350612f7681856020860161395d565b612f7f81613b29565b840191505092915050565b6000612f9582613763565b612f9f818561377f565b9350612faf81856020860161395d565b612fb881613b29565b840191505092915050565b6000612fce82613763565b612fd88185613790565b9350612fe881856020860161395d565b80840191505092915050565b600061300160328361377f565b915061300c82613b3a565b604082019050919050565b600061302460268361377f565b915061302f82613b89565b604082019050919050565b600061304760258361377f565b915061305282613bd8565b604082019050919050565b600061306a601c8361377f565b915061307582613c27565b602082019050919050565b600061308d60248361377f565b915061309882613c50565b604082019050919050565b60006130b060198361377f565b91506130bb82613c9f565b602082019050919050565b60006130d3602c8361377f565b91506130de82613cc8565b604082019050919050565b60006130f660388361377f565b915061310182613d17565b604082019050919050565b6000613119602a8361377f565b915061312482613d66565b604082019050919050565b600061313c60298361377f565b915061314782613db5565b604082019050919050565b600061315f60208361377f565b915061316a82613e04565b602082019050919050565b600061318260208361377f565b915061318d82613e2d565b602082019050919050565b60006131a560318361377f565b91506131b082613e56565b604082019050919050565b60006131c8602c8361377f565b91506131d382613ea5565b604082019050919050565b60006131eb60208361377f565b91506131f682613ef4565b602082019050919050565b600061320e602f8361377f565b915061321982613f1d565b604082019050919050565b600061323160218361377f565b915061323c82613f6c565b604082019050919050565b600061325460318361377f565b915061325f82613fbb565b604082019050919050565b6000613277602a8361377f565b91506132828261400a565b604082019050919050565b600061329a60188361377f565b91506132a582614059565b602082019050919050565b60006132bd601f8361377f565b91506132c882614082565b602082019050919050565b60006132e060198361377f565b91506132eb826140ab565b602082019050919050565b6132ff8161392c565b82525050565b60006133118285612fc3565b915061331d8284612fc3565b91508190509392505050565b600060208201905061333e6000830184612f33565b92915050565b60006080820190506133596000830187612f33565b6133666020830186612f33565b61337360408301856132f6565b81810360608301526133858184612f51565b905095945050505050565b60006040820190506133a56000830185612f33565b6133b260208301846132f6565b9392505050565b60006020820190506133ce6000830184612f42565b92915050565b600060208201905081810360008301526133ee8184612f8a565b905092915050565b6000602082019050818103600083015261340f81612ff4565b9050919050565b6000602082019050818103600083015261342f81613017565b9050919050565b6000602082019050818103600083015261344f8161303a565b9050919050565b6000602082019050818103600083015261346f8161305d565b9050919050565b6000602082019050818103600083015261348f81613080565b9050919050565b600060208201905081810360008301526134af816130a3565b9050919050565b600060208201905081810360008301526134cf816130c6565b9050919050565b600060208201905081810360008301526134ef816130e9565b9050919050565b6000602082019050818103600083015261350f8161310c565b9050919050565b6000602082019050818103600083015261352f8161312f565b9050919050565b6000602082019050818103600083015261354f81613152565b9050919050565b6000602082019050818103600083015261356f81613175565b9050919050565b6000602082019050818103600083015261358f81613198565b9050919050565b600060208201905081810360008301526135af816131bb565b9050919050565b600060208201905081810360008301526135cf816131de565b9050919050565b600060208201905081810360008301526135ef81613201565b9050919050565b6000602082019050818103600083015261360f81613224565b9050919050565b6000602082019050818103600083015261362f81613247565b9050919050565b6000602082019050818103600083015261364f8161326a565b9050919050565b6000602082019050818103600083015261366f8161328d565b9050919050565b6000602082019050818103600083015261368f816132b0565b9050919050565b600060208201905081810360008301526136af816132d3565b9050919050565b60006020820190506136cb60008301846132f6565b92915050565b60006136db6136ec565b90506136e782826139c2565b919050565b6000604051905090565b600067ffffffffffffffff82111561371157613710613afa565b5b61371a82613b29565b9050602081019050919050565b600067ffffffffffffffff82111561374257613741613afa565b5b61374b82613b29565b9050602081019050919050565b600081519050919050565b600081519050919050565b600082825260208201905092915050565b600082825260208201905092915050565b600081905092915050565b60006137a68261392c565b91506137b18361392c565b9250827fffffffffffffffffffffffffffffffffffffffffffffffffffffffffffffffff038211156137e6576137e5613a6d565b5b828201905092915050565b60006137fc8261392c565b91506138078361392c565b92508261381757613816613a9c565b5b828204905092915050565b600061382d8261392c565b91506138388361392c565b9250817fffffffffffffffffffffffffffffffffffffffffffffffffffffffffffffffff048311821515161561387157613870613a6d565b5b828202905092915050565b60006138878261392c565b91506138928361392c565b9250828210156138a5576138a4613a6d565b5b828203905092915050565b60006138bb8261390c565b9050919050565b60008115159050919050565b60007fffffffff0000000000000000000000000000000000000000000000000000000082169050919050565b6000613905826138b0565b9050919050565b600073ffffffffffffffffffffffffffffffffffffffff82169050919050565b6000819050919050565b60006bffffffffffffffffffffffff82169050919050565b82818337600083830152505050565b60005b8381101561397b578082015181840152602081019050613960565b8381111561398a576000848401525b50505050565b600060028204905060018216806139a857607f821691505b602082108114156139bc576139bb613acb565b5b50919050565b6139cb82613b29565b810181811067ffffffffffffffff821117156139ea576139e9613afa565b5b80604052505050565b60006139fe8261392c565b91507fffffffffffffffffffffffffffffffffffffffffffffffffffffffffffffffff821415613a3157613a30613a6d565b5b600182019050919050565b6000613a478261392c565b9150613a528361392c565b925082613a6257613a61613a9c565b5b828206905092915050565b7f4e487b7100000000000000000000000000000000000000000000000000000000600052601160045260246000fd5b7f4e487b7100000000000000000000000000000000000000000000000000000000600052601260045260246000fd5b7f4e487b7100000000000000000000000000000000000000000000000000000000600052602260045260246000fd5b7f4e487b7100000000000000000000000000000000000000000000000000000000600052604160045260246000fd5b6000601f19601f8301169050919050565b7f4552433732313a207472616e7366657220746f206e6f6e20455243373231526560008201527f63656976657220696d706c656d656e7465720000000000000000000000000000602082015250565b7f4f776e61626c653a206e6577206f776e657220697320746865207a65726f206160008201527f6464726573730000000000000000000000000000000000000000000000000000602082015250565b7f4552433732313a207472616e736665722066726f6d20696e636f72726563742060008201527f6f776e6572000000000000000000000000000000000000000000000000000000602082015250565b7f4552433732313a20746f6b656e20616c7265616479206d696e74656400000000600082015250565b7f4552433732313a207472616e7366657220746f20746865207a65726f2061646460008201527f7265737300000000000000000000000000000000000000000000000000000000602082015250565b7f4552433732313a20617070726f766520746f2063616c6c657200000000000000600082015250565b7f4552433732313a206f70657261746f7220717565727920666f72206e6f6e657860008201527f697374656e7420746f6b656e0000000000000000000000000000000000000000602082015250565b7f4552433732313a20617070726f76652063616c6c6572206973206e6f74206f7760008201527f6e6572206e6f7220617070726f76656420666f7220616c6c0000000000000000602082015250565b7f4552433732313a2062616c616e636520717565727920666f7220746865207a6560008201527f726f206164647265737300000000000000000000000000000000000000000000602082015250565b7f4552433732313a206f776e657220717565727920666f72206e6f6e657869737460008201527f656e7420746f6b656e0000000000000000000000000000000000000000000000602082015250565b7f4d6178204e465473206d696e7461626c65207065722077616c6c6574203d2032600082015250565b7f4552433732313a206d696e7420746f20746865207a65726f2061646472657373600082015250565b7f45524337323155524953746f726167653a2055524920717565727920666f722060008201527f6e6f6e6578697374656e7420746f6b656e000000000000000000000000000000602082015250565b7f4552433732313a20617070726f76656420717565727920666f72206e6f6e657860008201527f697374656e7420746f6b656e0000000000000000000000000000000000000000602082015250565b7f4f776e61626c653a2063616c6c6572206973206e6f7420746865206f776e6572600082015250565b7f4552433732314d657461646174613a2055524920717565727920666f72206e6f60008201527f6e6578697374656e7420746f6b656e0000000000000000000000000000000000602082015250565b7f4552433732313a20617070726f76616c20746f2063757272656e74206f776e6560008201527f7200000000000000000000000000000000000000000000000000000000000000602082015250565b7f4552433732313a207472616e736665722063616c6c6572206973206e6f74206f60008201527f776e6572206e6f7220617070726f766564000000000000000000000000000000602082015250565b7f455243323938313a20726f79616c7479206665652077696c6c2065786365656460008201527f2073616c65507269636500000000000000000000000000000000000000000000602082015250565b7f496e636f7272656374204554482076616c75652073656e740000000000000000600082015250565b7f5265656e7472616e637947756172643a207265656e7472616e742063616c6c00600082015250565b7f455243323938313a20696e76616c696420726563656976657200000000000000600082015250565b6140dd816138b0565b81146140e857600080fd5b50565b6140f4816138c2565b81146140ff57600080fd5b50565b61410b816138ce565b811461411657600080fd5b50565b614122816138fa565b811461412d57600080fd5b50565b6141398161392c565b811461414457600080fd5b50565b61415081613936565b811461415b57600080fd5b5056fea2646970667358221220f4bf8a1db8c78547416c92ba4c2e4c7cd2278ebecdb5cb673c3925dabb7209b564736f6c63430008040033",
   "linkReferences": {},
   "deployedLinkReferences": {}
}