{
   "_format": "hh-sol-artifact-1",
   "contractName": "LostandFound_vol_1",
   "sourceName": "contracts/LostandFound_vol_1.sol",
   "abi": [
      {
         "inputs": [],
         "stateMutability": "nonpayable",
         "type": "constructor"
      },
      {
         "anonymous": false,
         "inputs": [
            {
               "indexed": true,
               "internalType": "address",
               "name": "owner",
               "type": "address"
            },
            {
               "indexed": true,
               "internalType": "address",
               "name": "approved",
               "type": "address"
            },
            {
               "indexed": true,
               "internalType": "uint256",
               "name": "tokenId",
               "type": "uint256"
            }
         ],
         "name": "Approval",
         "type": "event"
      },
      {
         "anonymous": false,
         "inputs": [
            {
               "indexed": true,
               "internalType": "address",
               "name": "owner",
               "type": "address"
            },
            {
               "indexed": true,
               "internalType": "address",
               "name": "operator",
               "type": "address"
            },
            {
               "indexed": false,
               "internalType": "bool",
               "name": "approved",
               "type": "bool"
            }
         ],
         "name": "ApprovalForAll",
         "type": "event"
      },
      {
         "anonymous": false,
         "inputs": [
            {
               "indexed": true,
               "internalType": "address",
               "name": "previousOwner",
               "type": "address"
            },
            {
               "indexed": true,
               "internalType": "address",
               "name": "newOwner",
               "type": "address"
            }
         ],
         "name": "OwnershipTransferred",
         "type": "event"
      },
      {
         "anonymous": false,
         "inputs": [
            {
               "indexed": true,
               "internalType": "address",
               "name": "from",
               "type": "address"
            },
            {
               "indexed": true,
               "internalType": "address",
               "name": "to",
               "type": "address"
            },
            {
               "indexed": true,
               "internalType": "uint256",
               "name": "tokenId",
               "type": "uint256"
            }
         ],
         "name": "Transfer",
         "type": "event"
      },
      {
         "inputs": [
            {
               "internalType": "address",
               "name": "to",
               "type": "address"
            },
            {
               "internalType": "uint256",
               "name": "tokenId",
               "type": "uint256"
            }
         ],
         "name": "approve",
         "outputs": [],
         "stateMutability": "nonpayable",
         "type": "function"
      },
      {
         "inputs": [
            {
               "internalType": "address",
               "name": "owner",
               "type": "address"
            }
         ],
         "name": "balanceOf",
         "outputs": [
            {
               "internalType": "uint256",
               "name": "",
               "type": "uint256"
            }
         ],
         "stateMutability": "view",
         "type": "function"
      },
      {
         "inputs": [
            {
               "internalType": "uint256",
               "name": "tokenId",
               "type": "uint256"
            }
         ],
         "name": "getApproved",
         "outputs": [
            {
               "internalType": "address",
               "name": "",
               "type": "address"
            }
         ],
         "stateMutability": "view",
         "type": "function"
      },
      {
         "inputs": [],
         "name": "getBaseURI",
         "outputs": [
            {
               "internalType": "string",
               "name": "",
               "type": "string"
            }
         ],
         "stateMutability": "view",
         "type": "function"
      },
      {
         "inputs": [],
         "name": "getLastTokenId",
         "outputs": [
            {
               "internalType": "uint256",
               "name": "",
               "type": "uint256"
            }
         ],
         "stateMutability": "view",
         "type": "function"
      },
      {
         "inputs": [
            {
               "internalType": "address",
               "name": "owner",
               "type": "address"
            },
            {
               "internalType": "address",
               "name": "operator",
               "type": "address"
            }
         ],
         "name": "isApprovedForAll",
         "outputs": [
            {
               "internalType": "bool",
               "name": "",
               "type": "bool"
            }
         ],
         "stateMutability": "view",
         "type": "function"
      },
      {
         "inputs": [
            {
               "internalType": "uint256",
               "name": "numberOfTokens",
               "type": "uint256"
            }
         ],
         "name": "lostandfoundMinter",
         "outputs": [],
         "stateMutability": "payable",
         "type": "function"
      },
      {
         "inputs": [],
         "name": "maxTokensInMintPhase",
         "outputs": [
            {
               "internalType": "uint256",
               "name": "",
               "type": "uint256"
            }
         ],
         "stateMutability": "view",
         "type": "function"
      },
      {
         "inputs": [],
         "name": "mintPrice",
         "outputs": [
            {
               "internalType": "uint256",
               "name": "",
               "type": "uint256"
            }
         ],
         "stateMutability": "view",
         "type": "function"
      },
      {
         "inputs": [],
         "name": "name",
         "outputs": [
            {
               "internalType": "string",
               "name": "",
               "type": "string"
            }
         ],
         "stateMutability": "view",
         "type": "function"
      },
      {
         "inputs": [],
         "name": "owner",
         "outputs": [
            {
               "internalType": "address",
               "name": "",
               "type": "address"
            }
         ],
         "stateMutability": "view",
         "type": "function"
      },
      {
         "inputs": [
            {
               "internalType": "uint256",
               "name": "tokenId",
               "type": "uint256"
            }
         ],
         "name": "ownerOf",
         "outputs": [
            {
               "internalType": "address",
               "name": "",
               "type": "address"
            }
         ],
         "stateMutability": "view",
         "type": "function"
      },
      {
         "inputs": [],
         "name": "renounceOwnership",
         "outputs": [],
         "stateMutability": "nonpayable",
         "type": "function"
      },
      {
         "inputs": [
            {
               "internalType": "uint256",
               "name": "_tokenId",
               "type": "uint256"
            },
            {
               "internalType": "uint256",
               "name": "_salePrice",
               "type": "uint256"
            }
         ],
         "name": "royaltyInfo",
         "outputs": [
            {
               "internalType": "address",
               "name": "",
               "type": "address"
            },
            {
               "internalType": "uint256",
               "name": "",
               "type": "uint256"
            }
         ],
         "stateMutability": "view",
         "type": "function"
      },
      {
         "inputs": [
            {
               "internalType": "address",
               "name": "from",
               "type": "address"
            },
            {
               "internalType": "address",
               "name": "to",
               "type": "address"
            },
            {
               "internalType": "uint256",
               "name": "tokenId",
               "type": "uint256"
            }
         ],
         "name": "safeTransferFrom",
         "outputs": [],
         "stateMutability": "nonpayable",
         "type": "function"
      },
      {
         "inputs": [
            {
               "internalType": "address",
               "name": "from",
               "type": "address"
            },
            {
               "internalType": "address",
               "name": "to",
               "type": "address"
            },
            {
               "internalType": "uint256",
               "name": "tokenId",
               "type": "uint256"
            },
            {
               "internalType": "bytes",
               "name": "_data",
               "type": "bytes"
            }
         ],
         "name": "safeTransferFrom",
         "outputs": [],
         "stateMutability": "nonpayable",
         "type": "function"
      },
      {
         "inputs": [
            {
               "internalType": "address",
               "name": "operator",
               "type": "address"
            },
            {
               "internalType": "bool",
               "name": "approved",
               "type": "bool"
            }
         ],
         "name": "setApprovalForAll",
         "outputs": [],
         "stateMutability": "nonpayable",
         "type": "function"
      },
      {
         "inputs": [
            {
               "internalType": "string",
               "name": "_baseURI",
               "type": "string"
            }
         ],
         "name": "setBaseURI",
         "outputs": [],
         "stateMutability": "nonpayable",
         "type": "function"
      },
      {
         "inputs": [
            {
               "internalType": "address",
               "name": "_receiver",
               "type": "address"
            },
            {
               "internalType": "uint96",
               "name": "_royaltyFeesInBips",
               "type": "uint96"
            }
         ],
         "name": "setRoyaltyInfo",
         "outputs": [],
         "stateMutability": "nonpayable",
         "type": "function"
      },
      {
         "inputs": [
            {
               "internalType": "bytes4",
               "name": "interfaceId",
               "type": "bytes4"
            }
         ],
         "name": "supportsInterface",
         "outputs": [
            {
               "internalType": "bool",
               "name": "",
               "type": "bool"
            }
         ],
         "stateMutability": "view",
         "type": "function"
      },
      {
         "inputs": [],
         "name": "symbol",
         "outputs": [
            {
               "internalType": "string",
               "name": "",
               "type": "string"
            }
         ],
         "stateMutability": "view",
         "type": "function"
      },
      {
         "inputs": [
            {
               "internalType": "uint256",
               "name": "tokenId",
               "type": "uint256"
            }
         ],
         "name": "tokenURI",
         "outputs": [
            {
               "internalType": "string",
               "name": "",
               "type": "string"
            }
         ],
         "stateMutability": "view",
         "type": "function"
      },
      {
         "inputs": [],
         "name": "totalSupply",
         "outputs": [
            {
               "internalType": "uint256",
               "name": "",
               "type": "uint256"
            }
         ],
         "stateMutability": "view",
         "type": "function"
      },
      {
         "inputs": [
            {
               "internalType": "address",
               "name": "from",
               "type": "address"
            },
            {
               "internalType": "address",
               "name": "to",
               "type": "address"
            },
            {
               "internalType": "uint256",
               "name": "tokenId",
               "type": "uint256"
            }
         ],
         "name": "transferFrom",
         "outputs": [],
         "stateMutability": "nonpayable",
         "type": "function"
      },
      {
         "inputs": [
            {
               "internalType": "address",
               "name": "newOwner",
               "type": "address"
            }
         ],
         "name": "transferOwnership",
         "outputs": [],
         "stateMutability": "nonpayable",
         "type": "function"
      },
      {
         "inputs": [],
         "name": "withdraw",
         "outputs": [],
         "stateMutability": "nonpayable",
         "type": "function"
      },
      {
         "inputs": [
            {
               "internalType": "contract IERC20",
               "name": "token",
               "type": "address"
            }
         ],
         "name": "withdrawTokens",
         "outputs": [],
         "stateMutability": "nonpayable",
         "type": "function"
      }
   ],
   "bytecode": "0x60806040523480156200001157600080fd5b506040518060400160405280601381526020017f4c6f7374202620466f756e6420766f6c2e2031000000000000000000000000008152506040518060400160405280600281526020017f4c46000000000000000000000000000000000000000000000000000000000000815250816000908051906020019062000096929190620001ae565b508060019080519060200190620000af929190620001ae565b505050620000d2620000c6620000e060201b60201c565b620000e860201b60201c565b6001600a81905550620002c3565b600033905090565b6000600960009054906101000a900473ffffffffffffffffffffffffffffffffffffffff16905081600960006101000a81548173ffffffffffffffffffffffffffffffffffffffff021916908373ffffffffffffffffffffffffffffffffffffffff1602179055508173ffffffffffffffffffffffffffffffffffffffff168173ffffffffffffffffffffffffffffffffffffffff167f8be0079c531659141344cd1fd0a4f28419497f9722a3daafe3b4186f6b6457e060405160405180910390a35050565b828054620001bc906200025e565b90600052602060002090601f016020900481019282620001e057600085556200022c565b82601f10620001fb57805160ff19168380011785556200022c565b828001600101855582156200022c579182015b828111156200022b5782518255916020019190600101906200020e565b5b5090506200023b91906200023f565b5090565b5b808211156200025a57600081600090555060010162000240565b5090565b600060028204905060018216806200027757607f821691505b602082108114156200028e576200028d62000294565b5b50919050565b7f4e487b7100000000000000000000000000000000000000000000000000000000600052602260045260246000fd5b613fab80620002d36000396000f3fe60806040526004361061019c5760003560e01c80636817c76c116100ec578063a22cb4651161008a578063d6aef79f11610064578063d6aef79f146105b3578063e985e9c5146105de578063f2fde38b1461061b578063f76db8d6146106445761019c565b8063a22cb46514610524578063b88d4fde1461054d578063c87b56dd146105765761019c565b8063715018a6116100c6578063715018a61461048c57806383c4c00d146104a35780638da5cb5b146104ce57806395d89b41146104f95761019c565b80636817c76c146103f957806370a0823114610424578063714c5398146104615761019c565b806323b872dd1161015957806342842e0e1161013357806342842e0e1461034157806349df728c1461036a57806355f804b3146103935780636352211e146103bc5761019c565b806323b872dd146102c35780632a55205a146102ec5780633ccfd60b1461032a5761019c565b806301ffc9a7146101a157806302fa7c47146101de57806306fdde0314610207578063081812fc14610232578063095ea7b31461026f57806318160ddd14610298575b600080fd5b3480156101ad57600080fd5b506101c860048036038101906101c39190612c00565b610660565b6040516101d591906131d0565b60405180910390f35b3480156101ea57600080fd5b5061020560048036038101906102009190612b9b565b610672565b005b34801561021357600080fd5b5061021c6106fc565b60405161022991906131eb565b60405180910390f35b34801561023e57600080fd5b5061025960048036038101906102549190612cbc565b61078e565b6040516102669190613140565b60405180910390f35b34801561027b57600080fd5b5061029660048036038101906102919190612b5f565b610813565b005b3480156102a457600080fd5b506102ad61092b565b6040516102ba91906134cd565b60405180910390f35b3480156102cf57600080fd5b506102ea60048036038101906102e59190612a59565b610930565b005b3480156102f857600080fd5b50610313600480360381019061030e9190612d0e565b610990565b6040516103219291906131a7565b60405180910390f35b34801561033657600080fd5b5061033f610b7b565b005b34801561034d57600080fd5b5061036860048036038101906103639190612a59565b610c46565b005b34801561037657600080fd5b50610391600480360381019061038c9190612c52565b610c66565b005b34801561039f57600080fd5b506103ba60048036038101906103b59190612c7b565b610e01565b005b3480156103c857600080fd5b506103e360048036038101906103de9190612cbc565b610e97565b6040516103f09190613140565b60405180910390f35b34801561040557600080fd5b5061040e610f49565b60405161041b91906134cd565b60405180910390f35b34801561043057600080fd5b5061044b600480360381019061044691906129f4565b610f55565b60405161045891906134cd565b60405180910390f35b34801561046d57600080fd5b5061047661100d565b60405161048391906131eb565b60405180910390f35b34801561049857600080fd5b506104a161109f565b005b3480156104af57600080fd5b506104b8611127565b6040516104c591906134cd565b60405180910390f35b3480156104da57600080fd5b506104e3611138565b6040516104f09190613140565b60405180910390f35b34801561050557600080fd5b5061050e611162565b60405161051b91906131eb565b60405180910390f35b34801561053057600080fd5b5061054b60048036038101906105469190612b23565b6111f4565b005b34801561055957600080fd5b50610574600480360381019061056f9190612aa8565b61120a565b005b34801561058257600080fd5b5061059d60048036038101906105989190612cbc565b61126c565b6040516105aa91906131eb565b60405180910390f35b3480156105bf57600080fd5b506105c861127e565b6040516105d591906134cd565b60405180910390f35b3480156105ea57600080fd5b5061060560048036038101906106009190612a1d565b611283565b60405161061291906131d0565b60405180910390f35b34801561062757600080fd5b50610642600480360381019061063d91906129f4565b611317565b005b61065e60048036038101906106599190612cbc565b61140f565b005b600061066b8261154a565b9050919050565b61067a6115c4565b73ffffffffffffffffffffffffffffffffffffffff16610698611138565b73ffffffffffffffffffffffffffffffffffffffff16146106ee576040517f08c379a00000000000000000000000000000000000000000000000000000000081526004016106e5906133cd565b60405180910390fd5b6106f882826115cc565b5050565b60606000805461070b906137a7565b80601f0160208091040260200160405190810160405280929190818152602001828054610737906137a7565b80156107845780601f1061075957610100808354040283529160200191610784565b820191906000526020600020905b81548152906001019060200180831161076757829003601f168201915b5050505050905090565b600061079982611762565b6107d8576040517f08c379a00000000000000000000000000000000000000000000000000000000081526004016107cf906133ad565b60405180910390fd5b6004600083815260200190815260200160002060009054906101000a900473ffffffffffffffffffffffffffffffffffffffff169050919050565b600061081e82610e97565b90508073ffffffffffffffffffffffffffffffffffffffff168373ffffffffffffffffffffffffffffffffffffffff16141561088f576040517f08c379a00000000000000000000000000000000000000000000000000000000081526004016108869061340d565b60405180910390fd5b8073ffffffffffffffffffffffffffffffffffffffff166108ae6115c4565b73ffffffffffffffffffffffffffffffffffffffff1614806108dd57506108dc816108d76115c4565b611283565b5b61091c576040517f08c379a00000000000000000000000000000000000000000000000000000000081526004016109139061330d565b60405180910390fd5b61092683836117ce565b505050565b600c81565b61094161093b6115c4565b82611887565b610980576040517f08c379a00000000000000000000000000000000000000000000000000000000081526004016109779061342d565b60405180910390fd5b61098b838383611965565b505050565b6000806000600860008681526020019081526020016000206040518060400160405290816000820160009054906101000a900473ffffffffffffffffffffffffffffffffffffffff1673ffffffffffffffffffffffffffffffffffffffff1673ffffffffffffffffffffffffffffffffffffffff1681526020016000820160149054906101000a90046bffffffffffffffffffffffff166bffffffffffffffffffffffff166bffffffffffffffffffffffff16815250509050600073ffffffffffffffffffffffffffffffffffffffff16816000015173ffffffffffffffffffffffffffffffffffffffff161415610b265760076040518060400160405290816000820160009054906101000a900473ffffffffffffffffffffffffffffffffffffffff1673ffffffffffffffffffffffffffffffffffffffff1673ffffffffffffffffffffffffffffffffffffffff1681526020016000820160149054906101000a90046bffffffffffffffffffffffff166bffffffffffffffffffffffff166bffffffffffffffffffffffff168152505090505b6000610b30611bcc565b6bffffffffffffffffffffffff1682602001516bffffffffffffffffffffffff1686610b5c9190613639565b610b669190613608565b90508160000151819350935050509250929050565b610b836115c4565b73ffffffffffffffffffffffffffffffffffffffff16610ba1611138565b73ffffffffffffffffffffffffffffffffffffffff1614610bf7576040517f08c379a0000000000000000000000000000000000000000000000000000000008152600401610bee906133cd565b60405180910390fd5b60004790503373ffffffffffffffffffffffffffffffffffffffff166108fc829081150290604051600060405180830381858888f19350505050158015610c42573d6000803e3d6000fd5b5050565b610c618383836040518060200160405280600081525061120a565b505050565b610c6e6115c4565b73ffffffffffffffffffffffffffffffffffffffff16610c8c611138565b73ffffffffffffffffffffffffffffffffffffffff1614610ce2576040517f08c379a0000000000000000000000000000000000000000000000000000000008152600401610cd9906133cd565b60405180910390fd5b60008173ffffffffffffffffffffffffffffffffffffffff166370a08231306040518263ffffffff1660e01b8152600401610d1d9190613140565b60206040518083038186803b158015610d3557600080fd5b505afa158015610d49573d6000803e3d6000fd5b505050506040513d601f19601f82011682018060405250810190610d6d9190612ce5565b90508173ffffffffffffffffffffffffffffffffffffffff1663a9059cbb33836040518363ffffffff1660e01b8152600401610daa9291906131a7565b602060405180830381600087803b158015610dc457600080fd5b505af1158015610dd8573d6000803e3d6000fd5b505050506040513d601f19601f82011682018060405250810190610dfc9190612bd7565b505050565b610e096115c4565b73ffffffffffffffffffffffffffffffffffffffff16610e27611138565b73ffffffffffffffffffffffffffffffffffffffff1614610e7d576040517f08c379a0000000000000000000000000000000000000000000000000000000008152600401610e74906133cd565b60405180910390fd5b80600c9080519060200190610e939291906127c4565b5050565b6000806002600084815260200190815260200160002060009054906101000a900473ffffffffffffffffffffffffffffffffffffffff169050600073ffffffffffffffffffffffffffffffffffffffff168173ffffffffffffffffffffffffffffffffffffffff161415610f40576040517f08c379a0000000000000000000000000000000000000000000000000000000008152600401610f379061334d565b60405180910390fd5b80915050919050565b67016345785d8a000081565b60008073ffffffffffffffffffffffffffffffffffffffff168273ffffffffffffffffffffffffffffffffffffffff161415610fc6576040517f08c379a0000000000000000000000000000000000000000000000000000000008152600401610fbd9061332d565b60405180910390fd5b600360008373ffffffffffffffffffffffffffffffffffffffff1673ffffffffffffffffffffffffffffffffffffffff168152602001908152602001600020549050919050565b6060600c805461101c906137a7565b80601f0160208091040260200160405190810160405280929190818152602001828054611048906137a7565b80156110955780601f1061106a57610100808354040283529160200191611095565b820191906000526020600020905b81548152906001019060200180831161107857829003601f168201915b5050505050905090565b6110a76115c4565b73ffffffffffffffffffffffffffffffffffffffff166110c5611138565b73ffffffffffffffffffffffffffffffffffffffff161461111b576040517f08c379a0000000000000000000000000000000000000000000000000000000008152600401611112906133cd565b60405180910390fd5b6111256000611bd6565b565b6000611133600b611c9c565b905090565b6000600960009054906101000a900473ffffffffffffffffffffffffffffffffffffffff16905090565b606060018054611171906137a7565b80601f016020809104026020016040519081016040528092919081815260200182805461119d906137a7565b80156111ea5780601f106111bf576101008083540402835291602001916111ea565b820191906000526020600020905b8154815290600101906020018083116111cd57829003601f168201915b5050505050905090565b6112066111ff6115c4565b8383611caa565b5050565b61121b6112156115c4565b83611887565b61125a576040517f08c379a00000000000000000000000000000000000000000000000000000000081526004016112519061342d565b60405180910390fd5b61126684848484611e17565b50505050565b606061127782611e73565b9050919050565b600281565b6000600560008473ffffffffffffffffffffffffffffffffffffffff1673ffffffffffffffffffffffffffffffffffffffff16815260200190815260200160002060008373ffffffffffffffffffffffffffffffffffffffff1673ffffffffffffffffffffffffffffffffffffffff16815260200190815260200160002060009054906101000a900460ff16905092915050565b61131f6115c4565b73ffffffffffffffffffffffffffffffffffffffff1661133d611138565b73ffffffffffffffffffffffffffffffffffffffff1614611393576040517f08c379a000000000000000000000000000000000000000000000000000000000815260040161138a906133cd565b60405180910390fd5b600073ffffffffffffffffffffffffffffffffffffffff168173ffffffffffffffffffffffffffffffffffffffff161415611403576040517f08c379a00000000000000000000000000000000000000000000000000000000081526004016113fa9061322d565b60405180910390fd5b61140c81611bd6565b50565b6002600a541415611455576040517f08c379a000000000000000000000000000000000000000000000000000000000815260040161144c9061348d565b60405180910390fd5b6002600a8190555067016345785d8a0000813481836114749190613639565b146114b4576040517f08c379a00000000000000000000000000000000000000000000000000000000081526004016114ab9061346d565b60405180910390fd5b826002816114c133610f55565b6114cb91906135b2565b111561150c576040517f08c379a00000000000000000000000000000000000000000000000000000000081526004016115039061328d565b60405180910390fd5b60005b8481101561153b5761152833611523611fc5565b611fe0565b80806115339061380a565b91505061150f565b505050506001600a8190555050565b60007f2a55205a000000000000000000000000000000000000000000000000000000007bffffffffffffffffffffffffffffffffffffffffffffffffffffffff1916827bffffffffffffffffffffffffffffffffffffffffffffffffffffffff191614806115bd57506115bc82611ffe565b5b9050919050565b600033905090565b6115d4611bcc565b6bffffffffffffffffffffffff16816bffffffffffffffffffffffff161115611632576040517f08c379a00000000000000000000000000000000000000000000000000000000081526004016116299061344d565b60405180910390fd5b600073ffffffffffffffffffffffffffffffffffffffff168273ffffffffffffffffffffffffffffffffffffffff1614156116a2576040517f08c379a0000000000000000000000000000000000000000000000000000000008152600401611699906134ad565b60405180910390fd5b60405180604001604052808373ffffffffffffffffffffffffffffffffffffffff168152602001826bffffffffffffffffffffffff16815250600760008201518160000160006101000a81548173ffffffffffffffffffffffffffffffffffffffff021916908373ffffffffffffffffffffffffffffffffffffffff16021790555060208201518160000160146101000a8154816bffffffffffffffffffffffff02191690836bffffffffffffffffffffffff1602179055509050505050565b60008073ffffffffffffffffffffffffffffffffffffffff166002600084815260200190815260200160002060009054906101000a900473ffffffffffffffffffffffffffffffffffffffff1673ffffffffffffffffffffffffffffffffffffffff1614159050919050565b816004600083815260200190815260200160002060006101000a81548173ffffffffffffffffffffffffffffffffffffffff021916908373ffffffffffffffffffffffffffffffffffffffff160217905550808273ffffffffffffffffffffffffffffffffffffffff1661184183610e97565b73ffffffffffffffffffffffffffffffffffffffff167f8c5be1e5ebec7d5bd14f71427d1e84f3dd0314c0f7b2291e5b200ac8c7c3b92560405160405180910390a45050565b600061189282611762565b6118d1576040517f08c379a00000000000000000000000000000000000000000000000000000000081526004016118c8906132ed565b60405180910390fd5b60006118dc83610e97565b90508073ffffffffffffffffffffffffffffffffffffffff168473ffffffffffffffffffffffffffffffffffffffff16148061194b57508373ffffffffffffffffffffffffffffffffffffffff166119338461078e565b73ffffffffffffffffffffffffffffffffffffffff16145b8061195c575061195b8185611283565b5b91505092915050565b8273ffffffffffffffffffffffffffffffffffffffff1661198582610e97565b73ffffffffffffffffffffffffffffffffffffffff16146119db576040517f08c379a00000000000000000000000000000000000000000000000000000000081526004016119d29061324d565b60405180910390fd5b600073ffffffffffffffffffffffffffffffffffffffff168273ffffffffffffffffffffffffffffffffffffffff161415611a4b576040517f08c379a0000000000000000000000000000000000000000000000000000000008152600401611a42906132ad565b60405180910390fd5b611a568383836120e0565b611a616000826117ce565b6001600360008573ffffffffffffffffffffffffffffffffffffffff1673ffffffffffffffffffffffffffffffffffffffff1681526020019081526020016000206000828254611ab19190613693565b925050819055506001600360008473ffffffffffffffffffffffffffffffffffffffff1673ffffffffffffffffffffffffffffffffffffffff1681526020019081526020016000206000828254611b0891906135b2565b92505081905550816002600083815260200190815260200160002060006101000a81548173ffffffffffffffffffffffffffffffffffffffff021916908373ffffffffffffffffffffffffffffffffffffffff160217905550808273ffffffffffffffffffffffffffffffffffffffff168473ffffffffffffffffffffffffffffffffffffffff167fddf252ad1be2c89b69c2b068fc378daa952ba7f163c4a11628f55a4df523b3ef60405160405180910390a4611bc78383836120e5565b505050565b6000612710905090565b6000600960009054906101000a900473ffffffffffffffffffffffffffffffffffffffff16905081600960006101000a81548173ffffffffffffffffffffffffffffffffffffffff021916908373ffffffffffffffffffffffffffffffffffffffff1602179055508173ffffffffffffffffffffffffffffffffffffffff168173ffffffffffffffffffffffffffffffffffffffff167f8be0079c531659141344cd1fd0a4f28419497f9722a3daafe3b4186f6b6457e060405160405180910390a35050565b600081600001549050919050565b8173ffffffffffffffffffffffffffffffffffffffff168373ffffffffffffffffffffffffffffffffffffffff161415611d19576040517f08c379a0000000000000000000000000000000000000000000000000000000008152600401611d10906132cd565b60405180910390fd5b80600560008573ffffffffffffffffffffffffffffffffffffffff1673ffffffffffffffffffffffffffffffffffffffff16815260200190815260200160002060008473ffffffffffffffffffffffffffffffffffffffff1673ffffffffffffffffffffffffffffffffffffffff16815260200190815260200160002060006101000a81548160ff0219169083151502179055508173ffffffffffffffffffffffffffffffffffffffff168373ffffffffffffffffffffffffffffffffffffffff167f17307eab39ab6107e8899845ad3d59bd9653f200f220920489ca2b5937696c3183604051611e0a91906131d0565b60405180910390a3505050565b611e22848484611965565b611e2e848484846120ea565b611e6d576040517f08c379a0000000000000000000000000000000000000000000000000000000008152600401611e649061320d565b60405180910390fd5b50505050565b6060611e7e82611762565b611ebd576040517f08c379a0000000000000000000000000000000000000000000000000000000008152600401611eb49061338d565b60405180910390fd5b6000600660008481526020019081526020016000208054611edd906137a7565b80601f0160208091040260200160405190810160405280929190818152602001828054611f09906137a7565b8015611f565780601f10611f2b57610100808354040283529160200191611f56565b820191906000526020600020905b815481529060010190602001808311611f3957829003601f168201915b505050505090506000611f67612281565b9050600081511415611f7d578192505050611fc0565b600082511115611fb2578082604051602001611f9a92919061311c565b60405160208183030381529060405292505050611fc0565b611fbb84612298565b925050505b919050565b6000611fd1600b61233f565b611fdb600b611c9c565b905090565b611ffa828260405180602001604052806000815250612355565b5050565b60007f80ac58cd000000000000000000000000000000000000000000000000000000007bffffffffffffffffffffffffffffffffffffffffffffffffffffffff1916827bffffffffffffffffffffffffffffffffffffffffffffffffffffffff191614806120c957507f5b5e139f000000000000000000000000000000000000000000000000000000007bffffffffffffffffffffffffffffffffffffffffffffffffffffffff1916827bffffffffffffffffffffffffffffffffffffffffffffffffffffffff1916145b806120d957506120d8826123b0565b5b9050919050565b505050565b505050565b600061210b8473ffffffffffffffffffffffffffffffffffffffff1661241a565b15612274578373ffffffffffffffffffffffffffffffffffffffff1663150b7a026121346115c4565b8786866040518563ffffffff1660e01b8152600401612156949392919061315b565b602060405180830381600087803b15801561217057600080fd5b505af19250505080156121a157506040513d601f19601f8201168201806040525081019061219e9190612c29565b60015b612224573d80600081146121d1576040519150601f19603f3d011682016040523d82523d6000602084013e6121d6565b606091505b5060008151141561221c576040517f08c379a00000000000000000000000000000000000000000000000000000000081526004016122139061320d565b60405180910390fd5b805181602001fd5b63150b7a0260e01b7bffffffffffffffffffffffffffffffffffffffffffffffffffffffff1916817bffffffffffffffffffffffffffffffffffffffffffffffffffffffff191614915050612279565b600190505b949350505050565b606060405180602001604052806000815250905090565b60606122a382611762565b6122e2576040517f08c379a00000000000000000000000000000000000000000000000000000000081526004016122d9906133ed565b60405180910390fd5b60006122ec612281565b9050600081511161230c5760405180602001604052806000815250612337565b806123168461243d565b60405160200161232792919061311c565b6040516020818303038152906040525b915050919050565b6001816000016000828254019250508190555050565b61235f83836125ea565b61236c60008484846120ea565b6123ab576040517f08c379a00000000000000000000000000000000000000000000000000000000081526004016123a29061320d565b60405180910390fd5b505050565b60007f01ffc9a7000000000000000000000000000000000000000000000000000000007bffffffffffffffffffffffffffffffffffffffffffffffffffffffff1916827bffffffffffffffffffffffffffffffffffffffffffffffffffffffff1916149050919050565b6000808273ffffffffffffffffffffffffffffffffffffffff163b119050919050565b60606000821415612485576040518060400160405280600181526020017f300000000000000000000000000000000000000000000000000000000000000081525090506125e5565b600082905060005b600082146124b75780806124a09061380a565b915050600a826124b09190613608565b915061248d565b60008167ffffffffffffffff8111156124f9577f4e487b7100000000000000000000000000000000000000000000000000000000600052604160045260246000fd5b6040519080825280601f01601f19166020018201604052801561252b5781602001600182028036833780820191505090505b5090505b600085146125de576001826125449190613693565b9150600a856125539190613853565b603061255f91906135b2565b60f81b81838151811061259b577f4e487b7100000000000000000000000000000000000000000000000000000000600052603260045260246000fd5b60200101907effffffffffffffffffffffffffffffffffffffffffffffffffffffffffffff1916908160001a905350600a856125d79190613608565b945061252f565b8093505050505b919050565b600073ffffffffffffffffffffffffffffffffffffffff168273ffffffffffffffffffffffffffffffffffffffff16141561265a576040517f08c379a00000000000000000000000000000000000000000000000000000000081526004016126519061336d565b60405180910390fd5b61266381611762565b156126a3576040517f08c379a000000000000000000000000000000000000000000000000000000000815260040161269a9061326d565b60405180910390fd5b6126af600083836120e0565b6001600360008473ffffffffffffffffffffffffffffffffffffffff1673ffffffffffffffffffffffffffffffffffffffff16815260200190815260200160002060008282546126ff91906135b2565b92505081905550816002600083815260200190815260200160002060006101000a81548173ffffffffffffffffffffffffffffffffffffffff021916908373ffffffffffffffffffffffffffffffffffffffff160217905550808273ffffffffffffffffffffffffffffffffffffffff16600073ffffffffffffffffffffffffffffffffffffffff167fddf252ad1be2c89b69c2b068fc378daa952ba7f163c4a11628f55a4df523b3ef60405160405180910390a46127c0600083836120e5565b5050565b8280546127d0906137a7565b90600052602060002090601f0160209004810192826127f25760008555612839565b82601f1061280b57805160ff1916838001178555612839565b82800160010185558215612839579182015b8281111561283857825182559160200191906001019061281d565b5b509050612846919061284a565b5090565b5b8082111561286357600081600090555060010161284b565b5090565b600061287a6128758461350d565b6134e8565b90508281526020810184848401111561289257600080fd5b61289d848285613765565b509392505050565b60006128b86128b38461353e565b6134e8565b9050828152602081018484840111156128d057600080fd5b6128db848285613765565b509392505050565b6000813590506128f281613eeb565b92915050565b60008135905061290781613f02565b92915050565b60008151905061291c81613f02565b92915050565b60008135905061293181613f19565b92915050565b60008151905061294681613f19565b92915050565b600082601f83011261295d57600080fd5b813561296d848260208601612867565b91505092915050565b60008135905061298581613f30565b92915050565b600082601f83011261299c57600080fd5b81356129ac8482602086016128a5565b91505092915050565b6000813590506129c481613f47565b92915050565b6000815190506129d981613f47565b92915050565b6000813590506129ee81613f5e565b92915050565b600060208284031215612a0657600080fd5b6000612a14848285016128e3565b91505092915050565b60008060408385031215612a3057600080fd5b6000612a3e858286016128e3565b9250506020612a4f858286016128e3565b9150509250929050565b600080600060608486031215612a6e57600080fd5b6000612a7c868287016128e3565b9350506020612a8d868287016128e3565b9250506040612a9e868287016129b5565b9150509250925092565b60008060008060808587031215612abe57600080fd5b6000612acc878288016128e3565b9450506020612add878288016128e3565b9350506040612aee878288016129b5565b925050606085013567ffffffffffffffff811115612b0b57600080fd5b612b178782880161294c565b91505092959194509250565b60008060408385031215612b3657600080fd5b6000612b44858286016128e3565b9250506020612b55858286016128f8565b9150509250929050565b60008060408385031215612b7257600080fd5b6000612b80858286016128e3565b9250506020612b91858286016129b5565b9150509250929050565b60008060408385031215612bae57600080fd5b6000612bbc858286016128e3565b9250506020612bcd858286016129df565b9150509250929050565b600060208284031215612be957600080fd5b6000612bf78482850161290d565b91505092915050565b600060208284031215612c1257600080fd5b6000612c2084828501612922565b91505092915050565b600060208284031215612c3b57600080fd5b6000612c4984828501612937565b91505092915050565b600060208284031215612c6457600080fd5b6000612c7284828501612976565b91505092915050565b600060208284031215612c8d57600080fd5b600082013567ffffffffffffffff811115612ca757600080fd5b612cb38482850161298b565b91505092915050565b600060208284031215612cce57600080fd5b6000612cdc848285016129b5565b91505092915050565b600060208284031215612cf757600080fd5b6000612d05848285016129ca565b91505092915050565b60008060408385031215612d2157600080fd5b6000612d2f858286016129b5565b9250506020612d40858286016129b5565b9150509250929050565b612d53816136c7565b82525050565b612d62816136d9565b82525050565b6000612d738261356f565b612d7d8185613585565b9350612d8d818560208601613774565b612d9681613940565b840191505092915050565b6000612dac8261357a565b612db68185613596565b9350612dc6818560208601613774565b612dcf81613940565b840191505092915050565b6000612de58261357a565b612def81856135a7565b9350612dff818560208601613774565b80840191505092915050565b6000612e18603283613596565b9150612e2382613951565b604082019050919050565b6000612e3b602683613596565b9150612e46826139a0565b604082019050919050565b6000612e5e602583613596565b9150612e69826139ef565b604082019050919050565b6000612e81601c83613596565b9150612e8c82613a3e565b602082019050919050565b6000612ea4601c83613596565b9150612eaf82613a67565b602082019050919050565b6000612ec7602483613596565b9150612ed282613a90565b604082019050919050565b6000612eea601983613596565b9150612ef582613adf565b602082019050919050565b6000612f0d602c83613596565b9150612f1882613b08565b604082019050919050565b6000612f30603883613596565b9150612f3b82613b57565b604082019050919050565b6000612f53602a83613596565b9150612f5e82613ba6565b604082019050919050565b6000612f76602983613596565b9150612f8182613bf5565b604082019050919050565b6000612f99602083613596565b9150612fa482613c44565b602082019050919050565b6000612fbc603183613596565b9150612fc782613c6d565b604082019050919050565b6000612fdf602c83613596565b9150612fea82613cbc565b604082019050919050565b6000613002602083613596565b915061300d82613d0b565b602082019050919050565b6000613025602f83613596565b915061303082613d34565b604082019050919050565b6000613048602183613596565b915061305382613d83565b604082019050919050565b600061306b603183613596565b915061307682613dd2565b604082019050919050565b600061308e602a83613596565b915061309982613e21565b604082019050919050565b60006130b1601883613596565b91506130bc82613e70565b602082019050919050565b60006130d4601f83613596565b91506130df82613e99565b602082019050919050565b60006130f7601983613596565b915061310282613ec2565b602082019050919050565b61311681613743565b82525050565b60006131288285612dda565b91506131348284612dda565b91508190509392505050565b60006020820190506131556000830184612d4a565b92915050565b60006080820190506131706000830187612d4a565b61317d6020830186612d4a565b61318a604083018561310d565b818103606083015261319c8184612d68565b905095945050505050565b60006040820190506131bc6000830185612d4a565b6131c9602083018461310d565b9392505050565b60006020820190506131e56000830184612d59565b92915050565b600060208201905081810360008301526132058184612da1565b905092915050565b6000602082019050818103600083015261322681612e0b565b9050919050565b6000602082019050818103600083015261324681612e2e565b9050919050565b6000602082019050818103600083015261326681612e51565b9050919050565b6000602082019050818103600083015261328681612e74565b9050919050565b600060208201905081810360008301526132a681612e97565b9050919050565b600060208201905081810360008301526132c681612eba565b9050919050565b600060208201905081810360008301526132e681612edd565b9050919050565b6000602082019050818103600083015261330681612f00565b9050919050565b6000602082019050818103600083015261332681612f23565b9050919050565b6000602082019050818103600083015261334681612f46565b9050919050565b6000602082019050818103600083015261336681612f69565b9050919050565b6000602082019050818103600083015261338681612f8c565b9050919050565b600060208201905081810360008301526133a681612faf565b9050919050565b600060208201905081810360008301526133c681612fd2565b9050919050565b600060208201905081810360008301526133e681612ff5565b9050919050565b6000602082019050818103600083015261340681613018565b9050919050565b600060208201905081810360008301526134268161303b565b9050919050565b600060208201905081810360008301526134468161305e565b9050919050565b6000602082019050818103600083015261346681613081565b9050919050565b60006020820190508181036000830152613486816130a4565b9050919050565b600060208201905081810360008301526134a6816130c7565b9050919050565b600060208201905081810360008301526134c6816130ea565b9050919050565b60006020820190506134e2600083018461310d565b92915050565b60006134f2613503565b90506134fe82826137d9565b919050565b6000604051905090565b600067ffffffffffffffff82111561352857613527613911565b5b61353182613940565b9050602081019050919050565b600067ffffffffffffffff82111561355957613558613911565b5b61356282613940565b9050602081019050919050565b600081519050919050565b600081519050919050565b600082825260208201905092915050565b600082825260208201905092915050565b600081905092915050565b60006135bd82613743565b91506135c883613743565b9250827fffffffffffffffffffffffffffffffffffffffffffffffffffffffffffffffff038211156135fd576135fc613884565b5b828201905092915050565b600061361382613743565b915061361e83613743565b92508261362e5761362d6138b3565b5b828204905092915050565b600061364482613743565b915061364f83613743565b9250817fffffffffffffffffffffffffffffffffffffffffffffffffffffffffffffffff048311821515161561368857613687613884565b5b828202905092915050565b600061369e82613743565b91506136a983613743565b9250828210156136bc576136bb613884565b5b828203905092915050565b60006136d282613723565b9050919050565b60008115159050919050565b60007fffffffff0000000000000000000000000000000000000000000000000000000082169050919050565b600061371c826136c7565b9050919050565b600073ffffffffffffffffffffffffffffffffffffffff82169050919050565b6000819050919050565b60006bffffffffffffffffffffffff82169050919050565b82818337600083830152505050565b60005b83811015613792578082015181840152602081019050613777565b838111156137a1576000848401525b50505050565b600060028204905060018216806137bf57607f821691505b602082108114156137d3576137d26138e2565b5b50919050565b6137e282613940565b810181811067ffffffffffffffff8211171561380157613800613911565b5b80604052505050565b600061381582613743565b91507fffffffffffffffffffffffffffffffffffffffffffffffffffffffffffffffff82141561384857613847613884565b5b600182019050919050565b600061385e82613743565b915061386983613743565b925082613879576138786138b3565b5b828206905092915050565b7f4e487b7100000000000000000000000000000000000000000000000000000000600052601160045260246000fd5b7f4e487b7100000000000000000000000000000000000000000000000000000000600052601260045260246000fd5b7f4e487b7100000000000000000000000000000000000000000000000000000000600052602260045260246000fd5b7f4e487b7100000000000000000000000000000000000000000000000000000000600052604160045260246000fd5b6000601f19601f8301169050919050565b7f4552433732313a207472616e7366657220746f206e6f6e20455243373231526560008201527f63656976657220696d706c656d656e7465720000000000000000000000000000602082015250565b7f4f776e61626c653a206e6577206f776e657220697320746865207a65726f206160008201527f6464726573730000000000000000000000000000000000000000000000000000602082015250565b7f4552433732313a207472616e736665722066726f6d20696e636f72726563742060008201527f6f776e6572000000000000000000000000000000000000000000000000000000602082015250565b7f4552433732313a20746f6b656e20616c7265616479206d696e74656400000000600082015250565b7f4d6178207769746368657320746f206d696e7420697320746872656500000000600082015250565b7f4552433732313a207472616e7366657220746f20746865207a65726f2061646460008201527f7265737300000000000000000000000000000000000000000000000000000000602082015250565b7f4552433732313a20617070726f766520746f2063616c6c657200000000000000600082015250565b7f4552433732313a206f70657261746f7220717565727920666f72206e6f6e657860008201527f697374656e7420746f6b656e0000000000000000000000000000000000000000602082015250565b7f4552433732313a20617070726f76652063616c6c6572206973206e6f74206f7760008201527f6e6572206e6f7220617070726f76656420666f7220616c6c0000000000000000602082015250565b7f4552433732313a2062616c616e636520717565727920666f7220746865207a6560008201527f726f206164647265737300000000000000000000000000000000000000000000602082015250565b7f4552433732313a206f776e657220717565727920666f72206e6f6e657869737460008201527f656e7420746f6b656e0000000000000000000000000000000000000000000000602082015250565b7f4552433732313a206d696e7420746f20746865207a65726f2061646472657373600082015250565b7f45524337323155524953746f726167653a2055524920717565727920666f722060008201527f6e6f6e6578697374656e7420746f6b656e000000000000000000000000000000602082015250565b7f4552433732313a20617070726f76656420717565727920666f72206e6f6e657860008201527f697374656e7420746f6b656e0000000000000000000000000000000000000000602082015250565b7f4f776e61626c653a2063616c6c6572206973206e6f7420746865206f776e6572600082015250565b7f4552433732314d657461646174613a2055524920717565727920666f72206e6f60008201527f6e6578697374656e7420746f6b656e0000000000000000000000000000000000602082015250565b7f4552433732313a20617070726f76616c20746f2063757272656e74206f776e6560008201527f7200000000000000000000000000000000000000000000000000000000000000602082015250565b7f4552433732313a207472616e736665722063616c6c6572206973206e6f74206f60008201527f776e6572206e6f7220617070726f766564000000000000000000000000000000602082015250565b7f455243323938313a20726f79616c7479206665652077696c6c2065786365656460008201527f2073616c65507269636500000000000000000000000000000000000000000000602082015250565b7f496e636f7272656374204554482076616c75652073656e740000000000000000600082015250565b7f5265656e7472616e637947756172643a207265656e7472616e742063616c6c00600082015250565b7f455243323938313a20696e76616c696420726563656976657200000000000000600082015250565b613ef4816136c7565b8114613eff57600080fd5b50565b613f0b816136d9565b8114613f1657600080fd5b50565b613f22816136e5565b8114613f2d57600080fd5b50565b613f3981613711565b8114613f4457600080fd5b50565b613f5081613743565b8114613f5b57600080fd5b50565b613f678161374d565b8114613f7257600080fd5b5056fea2646970667358221220c2a2911f70b0d4a32da9800b09754eda46b93201be31da27c32de4bc176a762964736f6c63430008040033",
   "linkReferences": {},
   "deployedLinkReferences": {}
}